{
  "transactions": [
    {
      "hash": null,
      "transactionType": "CREATE",
      "contractName": "ERC20Mock",
      "contractAddress": "0x3a055fa955593f435e6b9a10f54d8985cf5cf754",
      "function": null,
      "arguments": [
        "ERC20Mock",
        "MERC",
        "1000000000000000000000000",
        "1000000000000000000000"
      ],
      "transaction": {
        "from": "0x4d05fce7228f04183a097db7f12a29c902655297",
        "gas": "0xced38",
        "value": "0x0",
        "input": "0x608060405234801562000010575f80fd5b5060405162000d0738038062000d078339810160408190526200003391620002a4565b83836003620000438382620003a3565b506004620000528282620003a3565b5050506200006733836200007460201b60201c565b6005555062000495915050565b6001600160a01b038216620000a35760405163ec442f0560e01b81525f60048201526024015b60405180910390fd5b620000b05f8383620000b4565b5050565b6001600160a01b038316620000e2578060025f828254620000d691906200046f565b90915550620001549050565b6001600160a01b0383165f9081526020819052604090205481811015620001365760405163391434e360e21b81526001600160a01b038516600482015260248101829052604481018390526064016200009a565b6001600160a01b0384165f9081526020819052604090209082900390555b6001600160a01b038216620001725760028054829003905562000190565b6001600160a01b0382165f9081526020819052604090208054820190555b816001600160a01b0316836001600160a01b03167fddf252ad1be2c89b69c2b068fc378daa952ba7f163c4a11628f55a4df523b3ef83604051620001d691815260200190565b60405180910390a3505050565b634e487b7160e01b5f52604160045260245ffd5b5f82601f83011262000207575f80fd5b81516001600160401b0380821115620002245762000224620001e3565b604051601f8301601f19908116603f011681019082821181831017156200024f576200024f620001e3565b81604052838152602092508660208588010111156200026c575f80fd5b5f91505b838210156200028f578582018301518183018401529082019062000270565b5f602085830101528094505050505092915050565b5f805f8060808587031215620002b8575f80fd5b84516001600160401b0380821115620002cf575f80fd5b620002dd88838901620001f7565b95506020870151915080821115620002f3575f80fd5b506200030287828801620001f7565b604087015160609097015195989097509350505050565b600181811c908216806200032e57607f821691505b6020821081036200034d57634e487b7160e01b5f52602260045260245ffd5b50919050565b601f8211156200039e57805f5260205f20601f840160051c810160208510156200037a5750805b601f840160051c820191505b818110156200039b575f815560010162000386565b50505b505050565b81516001600160401b03811115620003bf57620003bf620001e3565b620003d781620003d0845462000319565b8462000353565b602080601f8311600181146200040d575f8415620003f55750858301515b5f19600386901b1c1916600185901b17855562000467565b5f85815260208120601f198616915b828110156200043d578886015182559484019460019091019084016200041c565b50858210156200045b57878501515f19600388901b60f8161c191681555b505060018460011b0185555b505050505050565b808201808211156200048f57634e487b7160e01b5f52601160045260245ffd5b92915050565b61086480620004a35f395ff3fe608060405234801561000f575f80fd5b50600436106100cb575f3560e01c806370a08231116100885780639dc29fac116100635780639dc29fac14610192578063a9059cbb146101a5578063b86d1d63146101b8578063dd62ed3e146101cb575f80fd5b806370a082311461015957806395d89b41146101815780639c28143014610189575f80fd5b806306fdde03146100cf578063095ea7b3146100ed57806318160ddd1461011057806323b872dd14610122578063313ce5671461013557806340c10f1914610144575b5f80fd5b6100d7610203565b6040516100e491906106be565b60405180910390f35b6101006100fb366004610725565b610293565b60405190151581526020016100e4565b6002545b6040519081526020016100e4565b61010061013036600461074d565b6102ac565b604051601281526020016100e4565b610157610152366004610725565b6102cf565b005b610114610167366004610786565b6001600160a01b03165f9081526020819052604090205490565b6100d76102dd565b61011460055481565b6101576101a0366004610725565b6102ec565b6101006101b3366004610725565b6102f6565b6101576101c6366004610786565b610303565b6101146101d93660046107a6565b6001600160a01b039182165f90815260016020908152604080832093909416825291909152205490565b606060038054610212906107d7565b80601f016020809104026020016040519081016040528092919081815260200182805461023e906107d7565b80156102895780601f1061026057610100808354040283529160200191610289565b820191905f5260205f20905b81548152906001019060200180831161026c57829003601f168201915b5050505050905090565b5f336102a0818585610374565b60019150505b92915050565b5f336102b9858285610386565b6102c4858585610401565b506001949350505050565b6102d9828261045e565b5050565b606060048054610212906107d7565b6102d98282610492565b5f336102a0818585610401565b5f600554116103655760405162461bcd60e51b8152602060048201526024808201527f46617563657420616d6f756e74206d75737420626520677265617465722074686044820152630616e20360e41b60648201526084015b60405180910390fd5b6103718160055461045e565b50565b61038183838360016104c6565b505050565b6001600160a01b038381165f908152600160209081526040808320938616835292905220545f1981146103fb57818110156103ed57604051637dc7a0d960e11b81526001600160a01b0384166004820152602481018290526044810183905260640161035c565b6103fb84848484035f6104c6565b50505050565b6001600160a01b03831661042a57604051634b637e8f60e11b81525f600482015260240161035c565b6001600160a01b0382166104535760405163ec442f0560e01b81525f600482015260240161035c565b610381838383610598565b6001600160a01b0382166104875760405163ec442f0560e01b81525f600482015260240161035c565b6102d95f8383610598565b6001600160a01b0382166104bb57604051634b637e8f60e11b81525f600482015260240161035c565b6102d9825f83610598565b6001600160a01b0384166104ef5760405163e602df0560e01b81525f600482015260240161035c565b6001600160a01b03831661051857604051634a1406b160e11b81525f600482015260240161035c565b6001600160a01b038085165f90815260016020908152604080832093871683529290522082905580156103fb57826001600160a01b0316846001600160a01b03167f8c5be1e5ebec7d5bd14f71427d1e84f3dd0314c0f7b2291e5b200ac8c7c3b9258460405161058a91815260200190565b60405180910390a350505050565b6001600160a01b0383166105c2578060025f8282546105b7919061080f565b909155506106329050565b6001600160a01b0383165f90815260208190526040902054818110156106145760405163391434e360e21b81526001600160a01b0385166004820152602481018290526044810183905260640161035c565b6001600160a01b0384165f9081526020819052604090209082900390555b6001600160a01b03821661064e5760028054829003905561066c565b6001600160a01b0382165f9081526020819052604090208054820190555b816001600160a01b0316836001600160a01b03167fddf252ad1be2c89b69c2b068fc378daa952ba7f163c4a11628f55a4df523b3ef836040516106b191815260200190565b60405180910390a3505050565b5f602080835283518060208501525f5b818110156106ea578581018301518582016040015282016106ce565b505f604082860101526040601f19601f8301168501019250505092915050565b80356001600160a01b0381168114610720575f80fd5b919050565b5f8060408385031215610736575f80fd5b61073f8361070a565b946020939093013593505050565b5f805f6060848603121561075f575f80fd5b6107688461070a565b92506107766020850161070a565b9150604084013590509250925092565b5f60208284031215610796575f80fd5b61079f8261070a565b9392505050565b5f80604083850312156107b7575f80fd5b6107c08361070a565b91506107ce6020840161070a565b90509250929050565b600181811c908216806107eb57607f821691505b60208210810361080957634e487b7160e01b5f52602260045260245ffd5b50919050565b808201808211156102a657634e487b7160e01b5f52601160045260245ffdfea26469706673582212202085e9efc9e956bb59b0c3aeab25b0eea417823936fe56be3f83fcda597989e864736f6c63430008180033000000000000000000000000000000000000000000000000000000000000008000000000000000000000000000000000000000000000000000000000000000c000000000000000000000000000000000000000000000d3c21bcecceda100000000000000000000000000000000000000000000000000003635c9adc5dea00000000000000000000000000000000000000000000000000000000000000000000945524332304d6f636b000000000000000000000000000000000000000000000000000000000000000000000000000000000000000000000000000000000000044d45524300000000000000000000000000000000000000000000000000000000",
        "nonce": "0x0",
        "chainId": "0xaa36a7"
      },
      "additionalContracts": [],
      "isFixedGasLimit": false
    },
    {
      "hash": null,
      "transactionType": "CALL",
      "contractName": "ERC20Mock",
      "contractAddress": "0x3a055fa955593f435e6b9a10f54d8985cf5cf754",
      "function": "transfer(address,uint256)",
      "arguments": [
        "0xa433f323541CF82f97395076B5F83a7A06F1646c",
        "369232306413000768045"
      ],
      "transaction": {
        "from": "0x4d05fce7228f04183a097db7f12a29c902655297",
        "to": "0x3a055fa955593f435e6b9a10f54d8985cf5cf754",
        "gas": "0x1168e",
        "value": "0x0",
        "input": "0xa9059cbb000000000000000000000000a433f323541cf82f97395076b5f83a7a06f1646c0000000000000000000000000000000000000000000000140420aa67f118ba2d",
        "nonce": "0x1",
        "chainId": "0xaa36a7"
      },
      "additionalContracts": [],
      "isFixedGasLimit": false
    },
    {
      "hash": null,
      "transactionType": "CALL",
      "contractName": "ERC20Mock",
      "contractAddress": "0x3a055fa955593f435e6b9a10f54d8985cf5cf754",
      "function": "transfer(address,uint256)",
      "arguments": [
        "0xF80999DCaF1cd7eE68F8b72C4e9451581A92bb56",
        "371607552563053517688"
      ],
      "transaction": {
        "from": "0x4d05fce7228f04183a097db7f12a29c902655297",
        "to": "0x3a055fa955593f435e6b9a10f54d8985cf5cf754",
        "gas": "0x1168e",
        "value": "0x0",
        "input": "0xa9059cbb000000000000000000000000f80999dcaf1cd7ee68f8b72c4e9451581a92bb5600000000000000000000000000000000000000000000001425173c31e51adb78",
        "nonce": "0x2",
        "chainId": "0xaa36a7"
      },
      "additionalContracts": [],
      "isFixedGasLimit": false
    },
    {
      "hash": null,
      "transactionType": "CALL",
      "contractName": "ERC20Mock",
      "contractAddress": "0x3a055fa955593f435e6b9a10f54d8985cf5cf754",
      "function": "transfer(address,uint256)",
      "arguments": [
        "0x217Dc6A3130a6ab45942219DC4258d680BA5e160",
        "127762242951786657833"
      ],
      "transaction": {
        "from": "0x4d05fce7228f04183a097db7f12a29c902655297",
        "to": "0x3a055fa955593f435e6b9a10f54d8985cf5cf754",
        "gas": "0x1168e",
        "value": "0x0",
        "input": "0xa9059cbb000000000000000000000000217dc6a3130a6ab45942219dc4258d680ba5e160000000000000000000000000000000000000000000000006ed0eab0d2065f829",
        "nonce": "0x3",
        "chainId": "0xaa36a7"
      },
      "additionalContracts": [],
      "isFixedGasLimit": false
    },
    {
      "hash": null,
      "transactionType": "CALL",
      "contractName": "ERC20Mock",
      "contractAddress": "0x3a055fa955593f435e6b9a10f54d8985cf5cf754",
      "function": "transfer(address,uint256)",
      "arguments": [
        "0xC9C673b3B2857C3dc44DA8dbeb4FdAD7908edcd3",
        "410916183424734397330"
      ],
      "transaction": {
        "from": "0x4d05fce7228f04183a097db7f12a29c902655297",
        "to": "0x3a055fa955593f435e6b9a10f54d8985cf5cf754",
        "gas": "0x1168e",
        "value": "0x0",
        "input": "0xa9059cbb000000000000000000000000c9c673b3b2857c3dc44da8dbeb4fdad7908edcd3000000000000000000000000000000000000000000000016469b8bb2928d0392",
        "nonce": "0x4",
        "chainId": "0xaa36a7"
      },
      "additionalContracts": [],
      "isFixedGasLimit": false
    },
    {
      "hash": null,
      "transactionType": "CALL",
      "contractName": "ERC20Mock",
      "contractAddress": "0x3a055fa955593f435e6b9a10f54d8985cf5cf754",
      "function": "transfer(address,uint256)",
      "arguments": [
        "0xEC9261B092BD9Cb33687c6ffeEffDD90aA9e27Ef",
        "124442373949756168595"
      ],
      "transaction": {
        "from": "0x4d05fce7228f04183a097db7f12a29c902655297",
        "to": "0x3a055fa955593f435e6b9a10f54d8985cf5cf754",
        "gas": "0x1168e",
        "value": "0x0",
        "input": "0xa9059cbb000000000000000000000000ec9261b092bd9cb33687c6ffeeffdd90aa9e27ef000000000000000000000000000000000000000000000006befc1fc8898a5993",
        "nonce": "0x5",
        "chainId": "0xaa36a7"
      },
      "additionalContracts": [],
      "isFixedGasLimit": false
    },
    {
      "hash": null,
      "transactionType": "CALL",
      "contractName": "ERC20Mock",
      "contractAddress": "0x3a055fa955593f435e6b9a10f54d8985cf5cf754",
      "function": "transfer(address,uint256)",
      "arguments": [
        "0xF50c5Edc171ad5c5Cccac6f11AdB48dB2683C530",
        "316015096269268944364"
      ],
      "transaction": {
        "from": "0x4d05fce7228f04183a097db7f12a29c902655297",
        "to": "0x3a055fa955593f435e6b9a10f54d8985cf5cf754",
        "gas": "0x1168e",
        "value": "0x0",
        "input": "0xa9059cbb000000000000000000000000f50c5edc171ad5c5cccac6f11adb48db2683c530000000000000000000000000000000000000000000000011219727bcb6a585ec",
        "nonce": "0x6",
        "chainId": "0xaa36a7"
      },
      "additionalContracts": [],
      "isFixedGasLimit": false
    },
    {
      "hash": null,
      "transactionType": "CALL",
      "contractName": "ERC20Mock",
      "contractAddress": "0x3a055fa955593f435e6b9a10f54d8985cf5cf754",
      "function": "transfer(address,uint256)",
      "arguments": [
        "0x1cF85De2e11B6574584489a48D2A4020Eef60E67",
        "10207430105413051290"
      ],
      "transaction": {
        "from": "0x4d05fce7228f04183a097db7f12a29c902655297",
        "to": "0x3a055fa955593f435e6b9a10f54d8985cf5cf754",
        "gas": "0x1167e",
        "value": "0x0",
        "input": "0xa9059cbb0000000000000000000000001cf85de2e11b6574584489a48d2a4020eef60e670000000000000000000000000000000000000000000000008da813997ec5e39a",
        "nonce": "0x7",
        "chainId": "0xaa36a7"
      },
      "additionalContracts": [],
      "isFixedGasLimit": false
    },
    {
      "hash": null,
      "transactionType": "CALL",
      "contractName": "ERC20Mock",
      "contractAddress": "0x3a055fa955593f435e6b9a10f54d8985cf5cf754",
      "function": "transfer(address,uint256)",
      "arguments": [
        "0x58a772A130b03f3Cc065165F936D14E655a07bFd",
        "340949225471461923397"
      ],
      "transaction": {
        "from": "0x4d05fce7228f04183a097db7f12a29c902655297",
        "to": "0x3a055fa955593f435e6b9a10f54d8985cf5cf754",
        "gas": "0x1168e",
        "value": "0x0",
        "input": "0xa9059cbb00000000000000000000000058a772a130b03f3cc065165f936d14e655a07bfd0000000000000000000000000000000000000000000000127b9efa23cf0d9a45",
        "nonce": "0x8",
        "chainId": "0xaa36a7"
      },
      "additionalContracts": [],
      "isFixedGasLimit": false
    },
    {
      "hash": null,
      "transactionType": "CALL",
      "contractName": "ERC20Mock",
      "contractAddress": "0x3a055fa955593f435e6b9a10f54d8985cf5cf754",
      "function": "transfer(address,uint256)",
      "arguments": [
        "0x12fec127100A46e81BD09C1b07cF3D0F0C0de070",
        "99375524301886664260"
      ],
      "transaction": {
        "from": "0x4d05fce7228f04183a097db7f12a29c902655297",
        "to": "0x3a055fa955593f435e6b9a10f54d8985cf5cf754",
        "gas": "0x1168e",
        "value": "0x0",
        "input": "0xa9059cbb00000000000000000000000012fec127100a46e81bd09c1b07cf3d0f0c0de070000000000000000000000000000000000000000000000005631cc8d6a6272e44",
        "nonce": "0x9",
        "chainId": "0xaa36a7"
      },
      "additionalContracts": [],
      "isFixedGasLimit": false
    },
    {
      "hash": null,
      "transactionType": "CALL",
      "contractName": "ERC20Mock",
      "contractAddress": "0x3a055fa955593f435e6b9a10f54d8985cf5cf754",
      "function": "transfer(address,uint256)",
      "arguments": [
        "0x2613D469E2de1A4554870d7Ad374558ee4EABd41",
        "40382006679907928299"
      ],
      "transaction": {
        "from": "0x4d05fce7228f04183a097db7f12a29c902655297",
        "to": "0x3a055fa955593f435e6b9a10f54d8985cf5cf754",
        "gas": "0x1168e",
        "value": "0x0",
        "input": "0xa9059cbb0000000000000000000000002613d469e2de1a4554870d7ad374558ee4eabd410000000000000000000000000000000000000000000000023069b51f515d08eb",
        "nonce": "0xa",
        "chainId": "0xaa36a7"
      },
      "additionalContracts": [],
      "isFixedGasLimit": false
    },
    {
      "hash": null,
      "transactionType": "CALL",
      "contractName": "ERC20Mock",
      "contractAddress": "0x3a055fa955593f435e6b9a10f54d8985cf5cf754",
      "function": "transfer(address,uint256)",
      "arguments": [
        "0x1a376cFe2c4d4BA53843a1Dc5f9c0758C51c4F37",
        "217069026245391748134"
      ],
      "transaction": {
        "from": "0x4d05fce7228f04183a097db7f12a29c902655297",
        "to": "0x3a055fa955593f435e6b9a10f54d8985cf5cf754",
        "gas": "0x1168e",
        "value": "0x0",
        "input": "0xa9059cbb0000000000000000000000001a376cfe2c4d4ba53843a1dc5f9c0758c51c4f3700000000000000000000000000000000000000000000000bc470194a08850c26",
        "nonce": "0xb",
        "chainId": "0xaa36a7"
      },
      "additionalContracts": [],
      "isFixedGasLimit": false
    },
    {
      "hash": null,
      "transactionType": "CALL",
      "contractName": "ERC20Mock",
      "contractAddress": "0x3a055fa955593f435e6b9a10f54d8985cf5cf754",
      "function": "transfer(address,uint256)",
      "arguments": [
        "0xf86ae957b39B7d99F43E33B363B9c2384A16fAb1",
        "23382562480226496005"
      ],
      "transaction": {
        "from": "0x4d05fce7228f04183a097db7f12a29c902655297",
        "to": "0x3a055fa955593f435e6b9a10f54d8985cf5cf754",
        "gas": "0x1168e",
        "value": "0x0",
        "input": "0xa9059cbb000000000000000000000000f86ae957b39b7d99f43e33b363b9c2384a16fab1000000000000000000000000000000000000000000000001447f8cb08c46ee05",
        "nonce": "0xc",
        "chainId": "0xaa36a7"
      },
      "additionalContracts": [],
      "isFixedGasLimit": false
    },
    {
      "hash": null,
      "transactionType": "CALL",
      "contractName": "ERC20Mock",
      "contractAddress": "0x3a055fa955593f435e6b9a10f54d8985cf5cf754",
      "function": "transfer(address,uint256)",
      "arguments": [
        "0x77683a6A830bE99Dc2456C4F4F274E8e6FEE4437",
        "378204166381344803400"
      ],
      "transaction": {
        "from": "0x4d05fce7228f04183a097db7f12a29c902655297",
        "to": "0x3a055fa955593f435e6b9a10f54d8985cf5cf754",
        "gas": "0x1168e",
        "value": "0x0",
        "input": "0xa9059cbb00000000000000000000000077683a6a830be99dc2456c4f4f274e8e6fee443700000000000000000000000000000000000000000000001480a31d8324ca4a48",
        "nonce": "0xd",
        "chainId": "0xaa36a7"
      },
      "additionalContracts": [],
      "isFixedGasLimit": false
    },
    {
      "hash": null,
      "transactionType": "CALL",
      "contractName": "ERC20Mock",
      "contractAddress": "0x3a055fa955593f435e6b9a10f54d8985cf5cf754",
      "function": "transfer(address,uint256)",
      "arguments": [
        "0x650243A0eC0e89B6CadA865dB44EABE20C6960c6",
        "420420635414142807027"
      ],
      "transaction": {
        "from": "0x4d05fce7228f04183a097db7f12a29c902655297",
        "to": "0x3a055fa955593f435e6b9a10f54d8985cf5cf754",
        "gas": "0x1168e",
        "value": "0x0",
        "input": "0xa9059cbb000000000000000000000000650243a0ec0e89b6cada865db44eabe20c6960c6000000000000000000000000000000000000000000000016ca82246cd7fe6bf3",
        "nonce": "0xe",
        "chainId": "0xaa36a7"
      },
      "additionalContracts": [],
      "isFixedGasLimit": false
    },
    {
      "hash": null,
      "transactionType": "CALL",
      "contractName": "ERC20Mock",
      "contractAddress": "0x3a055fa955593f435e6b9a10f54d8985cf5cf754",
      "function": "transfer(address,uint256)",
      "arguments": [
        "0x41C45aC089a3Ef00CA2636809b376F2b7AC01D7B",
        "347565155388332117461"
      ],
      "transaction": {
        "from": "0x4d05fce7228f04183a097db7f12a29c902655297",
        "to": "0x3a055fa955593f435e6b9a10f54d8985cf5cf754",
        "gas": "0x1167e",
        "value": "0x0",
        "input": "0xa9059cbb00000000000000000000000041c45ac089a3ef00ca2636809b376f2b7ac01d7b000000000000000000000000000000000000000000000012d76f7b58b8fb0dd5",
        "nonce": "0xf",
        "chainId": "0xaa36a7"
      },
      "additionalContracts": [],
      "isFixedGasLimit": false
    },
    {
      "hash": null,
      "transactionType": "CALL",
      "contractName": "ERC20Mock",
      "contractAddress": "0x3a055fa955593f435e6b9a10f54d8985cf5cf754",
      "function": "transfer(address,uint256)",
      "arguments": [
        "0x2624984d0C9bE87Ca47Eb432bFaf97c993aA22F4",
        "198179377469594024286"
      ],
      "transaction": {
        "from": "0x4d05fce7228f04183a097db7f12a29c902655297",
        "to": "0x3a055fa955593f435e6b9a10f54d8985cf5cf754",
        "gas": "0x1168e",
        "value": "0x0",
        "input": "0xa9059cbb0000000000000000000000002624984d0c9be87ca47eb432bfaf97c993aa22f400000000000000000000000000000000000000000000000abe4a95cf2b34395e",
        "nonce": "0x10",
        "chainId": "0xaa36a7"
      },
      "additionalContracts": [],
      "isFixedGasLimit": false
    },
    {
      "hash": null,
      "transactionType": "CALL",
      "contractName": "ERC20Mock",
      "contractAddress": "0x3a055fa955593f435e6b9a10f54d8985cf5cf754",
      "function": "transfer(address,uint256)",
      "arguments": [
        "0x8DEe0E32dbB5D6Aef2a0269A60c158a546fcD6db",
        "238698227115485944961"
      ],
      "transaction": {
        "from": "0x4d05fce7228f04183a097db7f12a29c902655297",
        "to": "0x3a055fa955593f435e6b9a10f54d8985cf5cf754",
        "gas": "0x1168e",
        "value": "0x0",
        "input": "0xa9059cbb0000000000000000000000008dee0e32dbb5d6aef2a0269a60c158a546fcd6db00000000000000000000000000000000000000000000000cf09a74e2560ddc81",
        "nonce": "0x11",
        "chainId": "0xaa36a7"
      },
      "additionalContracts": [],
      "isFixedGasLimit": false
    },
    {
      "hash": null,
      "transactionType": "CALL",
      "contractName": "ERC20Mock",
      "contractAddress": "0x3a055fa955593f435e6b9a10f54d8985cf5cf754",
      "function": "transfer(address,uint256)",
      "arguments": [
        "0xAe4A80Dd274cDaA164D3f1b1238Ed3053Cd9D55f",
        "269654349897783655768"
      ],
      "transaction": {
        "from": "0x4d05fce7228f04183a097db7f12a29c902655297",
        "to": "0x3a055fa955593f435e6b9a10f54d8985cf5cf754",
        "gas": "0x1168e",
        "value": "0x0",
        "input": "0xa9059cbb000000000000000000000000ae4a80dd274cdaa164d3f1b1238ed3053cd9d55f00000000000000000000000000000000000000000000000e9e34b28ac4493d58",
        "nonce": "0x12",
        "chainId": "0xaa36a7"
      },
      "additionalContracts": [],
      "isFixedGasLimit": false
    },
    {
      "hash": null,
      "transactionType": "CALL",
      "contractName": "ERC20Mock",
      "contractAddress": "0x3a055fa955593f435e6b9a10f54d8985cf5cf754",
      "function": "transfer(address,uint256)",
      "arguments": [
        "0xa671AEAa6F278d7B05C45Dae2c86160B9AfeDfAB",
        "279264920803127809586"
      ],
      "transaction": {
        "from": "0x4d05fce7228f04183a097db7f12a29c902655297",
        "to": "0x3a055fa955593f435e6b9a10f54d8985cf5cf754",
        "gas": "0x1168e",
        "value": "0x0",
        "input": "0xa9059cbb000000000000000000000000a671aeaa6f278d7b05c45dae2c86160b9afedfab00000000000000000000000000000000000000000000000f23944ddc8a075632",
        "nonce": "0x13",
        "chainId": "0xaa36a7"
      },
      "additionalContracts": [],
      "isFixedGasLimit": false
    },
    {
      "hash": null,
      "transactionType": "CALL",
      "contractName": "ERC20Mock",
      "contractAddress": "0x3a055fa955593f435e6b9a10f54d8985cf5cf754",
      "function": "transfer(address,uint256)",
      "arguments": [
        "0xe455418A4133Ba37a57B3b5efE4A3CD159d08fa0",
        "172474130154165957964"
      ],
      "transaction": {
        "from": "0x4d05fce7228f04183a097db7f12a29c902655297",
        "to": "0x3a055fa955593f435e6b9a10f54d8985cf5cf754",
        "gas": "0x1168e",
        "value": "0x0",
        "input": "0xa9059cbb000000000000000000000000e455418a4133ba37a57b3b5efe4a3cd159d08fa0000000000000000000000000000000000000000000000009598f33916f8cf54c",
        "nonce": "0x14",
        "chainId": "0xaa36a7"
      },
      "additionalContracts": [],
      "isFixedGasLimit": false
    },
    {
      "hash": null,
      "transactionType": "CALL",
      "contractName": "ERC20Mock",
      "contractAddress": "0x3a055fa955593f435e6b9a10f54d8985cf5cf754",
      "function": "transfer(address,uint256)",
      "arguments": [
        "0x460aCbF92F103D4d54863a52051A68b4670C8919",
        "371606469653406429819"
      ],
      "transaction": {
        "from": "0x4d05fce7228f04183a097db7f12a29c902655297",
        "to": "0x3a055fa955593f435e6b9a10f54d8985cf5cf754",
        "gas": "0x1168e",
        "value": "0x0",
        "input": "0xa9059cbb000000000000000000000000460acbf92f103d4d54863a52051a68b4670c89190000000000000000000000000000000000000000000000142513634b5844327b",
        "nonce": "0x15",
        "chainId": "0xaa36a7"
      },
      "additionalContracts": [],
      "isFixedGasLimit": false
    },
    {
      "hash": null,
      "transactionType": "CALL",
      "contractName": "ERC20Mock",
      "contractAddress": "0x3a055fa955593f435e6b9a10f54d8985cf5cf754",
      "function": "transfer(address,uint256)",
      "arguments": [
        "0x9275ADB339B1a65dd021A05136ff49B2281C12EC",
        "219934817531456046844"
      ],
      "transaction": {
        "from": "0x4d05fce7228f04183a097db7f12a29c902655297",
        "to": "0x3a055fa955593f435e6b9a10f54d8985cf5cf754",
        "gas": "0x1168e",
        "value": "0x0",
        "input": "0xa9059cbb0000000000000000000000009275adb339b1a65dd021a05136ff49b2281c12ec00000000000000000000000000000000000000000000000bec356f47becac6fc",
        "nonce": "0x16",
        "chainId": "0xaa36a7"
      },
      "additionalContracts": [],
      "isFixedGasLimit": false
    },
    {
      "hash": null,
      "transactionType": "CALL",
      "contractName": "ERC20Mock",
      "contractAddress": "0x3a055fa955593f435e6b9a10f54d8985cf5cf754",
      "function": "transfer(address,uint256)",
      "arguments": [
        "0x9870cd63B43aba83E5c2213003E74c21Ee692599",
        "330956484749888418195"
      ],
      "transaction": {
        "from": "0x4d05fce7228f04183a097db7f12a29c902655297",
        "to": "0x3a055fa955593f435e6b9a10f54d8985cf5cf754",
        "gas": "0x1168e",
        "value": "0x0",
        "input": "0xa9059cbb0000000000000000000000009870cd63b43aba83e5c2213003e74c21ee692599000000000000000000000000000000000000000000000011f0f1a165bd157193",
        "nonce": "0x17",
        "chainId": "0xaa36a7"
      },
      "additionalContracts": [],
      "isFixedGasLimit": false
    },
    {
      "hash": null,
      "transactionType": "CALL",
      "contractName": "ERC20Mock",
      "contractAddress": "0x3a055fa955593f435e6b9a10f54d8985cf5cf754",
      "function": "transfer(address,uint256)",
      "arguments": [
        "0xE3bCed5d28E656E64b457673e9Ef41501dCd8D93",
        "276821809076738032438"
      ],
      "transaction": {
        "from": "0x4d05fce7228f04183a097db7f12a29c902655297",
        "to": "0x3a055fa955593f435e6b9a10f54d8985cf5cf754",
        "gas": "0x1168e",
        "value": "0x0",
        "input": "0xa9059cbb000000000000000000000000e3bced5d28e656e64b457673e9ef41501dcd8d9300000000000000000000000000000000000000000000000f01aca0b0c3f98336",
        "nonce": "0x18",
        "chainId": "0xaa36a7"
      },
      "additionalContracts": [],
      "isFixedGasLimit": false
    },
    {
      "hash": null,
      "transactionType": "CALL",
      "contractName": "ERC20Mock",
      "contractAddress": "0x3a055fa955593f435e6b9a10f54d8985cf5cf754",
      "function": "transfer(address,uint256)",
      "arguments": [
        "0x5Cc9196A57f076A65D99272291a1F4D097058Ad9",
        "442882654153862754059"
      ],
      "transaction": {
        "from": "0x4d05fce7228f04183a097db7f12a29c902655297",
        "to": "0x3a055fa955593f435e6b9a10f54d8985cf5cf754",
        "gas": "0x1168e",
        "value": "0x0",
        "input": "0xa9059cbb0000000000000000000000005cc9196a57f076a65d99272291a1f4d097058ad9000000000000000000000000000000000000000000000018023b4375c72b2f0b",
        "nonce": "0x19",
        "chainId": "0xaa36a7"
      },
      "additionalContracts": [],
      "isFixedGasLimit": false
    },
    {
      "hash": null,
      "transactionType": "CALL",
      "contractName": "ERC20Mock",
      "contractAddress": "0x3a055fa955593f435e6b9a10f54d8985cf5cf754",
      "function": "transfer(address,uint256)",
      "arguments": [
        "0x77D80819F236d834Cdce9a9a66d94aC1302369AA",
        "147936181009054807989"
      ],
      "transaction": {
        "from": "0x4d05fce7228f04183a097db7f12a29c902655297",
        "to": "0x3a055fa955593f435e6b9a10f54d8985cf5cf754",
        "gas": "0x1168e",
        "value": "0x0",
        "input": "0xa9059cbb00000000000000000000000077d80819f236d834cdce9a9a66d94ac1302369aa0000000000000000000000000000000000000000000000080506e4d40899b7b5",
        "nonce": "0x1a",
        "chainId": "0xaa36a7"
      },
      "additionalContracts": [],
      "isFixedGasLimit": false
    },
    {
      "hash": null,
      "transactionType": "CALL",
      "contractName": "ERC20Mock",
      "contractAddress": "0x3a055fa955593f435e6b9a10f54d8985cf5cf754",
      "function": "transfer(address,uint256)",
      "arguments": [
        "0x9023c53d6F9dB3C4E6BB773941E1693c23A56a93",
        "146628277833324591415"
      ],
      "transaction": {
        "from": "0x4d05fce7228f04183a097db7f12a29c902655297",
        "to": "0x3a055fa955593f435e6b9a10f54d8985cf5cf754",
        "gas": "0x1168e",
        "value": "0x0",
        "input": "0xa9059cbb0000000000000000000000009023c53d6f9db3c4e6bb773941e1693c23a56a93000000000000000000000000000000000000000000000007f2e049d1ca987937",
        "nonce": "0x1b",
        "chainId": "0xaa36a7"
      },
      "additionalContracts": [],
      "isFixedGasLimit": false
    },
    {
      "hash": null,
      "transactionType": "CALL",
      "contractName": "ERC20Mock",
      "contractAddress": "0x3a055fa955593f435e6b9a10f54d8985cf5cf754",
      "function": "transfer(address,uint256)",
      "arguments": [
        "0xc68C8A63F7E287254d7Ee0e20A1D6685298e78b8",
        "328788164395285867478"
      ],
      "transaction": {
        "from": "0x4d05fce7228f04183a097db7f12a29c902655297",
        "to": "0x3a055fa955593f435e6b9a10f54d8985cf5cf754",
        "gas": "0x1168e",
        "value": "0x0",
        "input": "0xa9059cbb000000000000000000000000c68c8a63f7e287254d7ee0e20a1d6685298e78b8000000000000000000000000000000000000000000000011d2da3585edbfebd6",
        "nonce": "0x1c",
        "chainId": "0xaa36a7"
      },
      "additionalContracts": [],
      "isFixedGasLimit": false
    },
    {
      "hash": null,
      "transactionType": "CALL",
      "contractName": "ERC20Mock",
      "contractAddress": "0x3a055fa955593f435e6b9a10f54d8985cf5cf754",
      "function": "transfer(address,uint256)",
      "arguments": [
        "0xCC11E15AbB1ADE101A8250dE0c186d1cd451FCA7",
        "413560891600255633820"
      ],
      "transaction": {
        "from": "0x4d05fce7228f04183a097db7f12a29c902655297",
        "to": "0x3a055fa955593f435e6b9a10f54d8985cf5cf754",
        "gas": "0x1168e",
        "value": "0x0",
        "input": "0xa9059cbb000000000000000000000000cc11e15abb1ade101a8250de0c186d1cd451fca70000000000000000000000000000000000000000000000166b4f6fc55b10c99c",
        "nonce": "0x1d",
        "chainId": "0xaa36a7"
      },
      "additionalContracts": [],
      "isFixedGasLimit": false
    },
    {
      "hash": null,
      "transactionType": "CALL",
      "contractName": "ERC20Mock",
      "contractAddress": "0x3a055fa955593f435e6b9a10f54d8985cf5cf754",
      "function": "transfer(address,uint256)",
      "arguments": [
        "0x5c5F5a39Ea69a43D726e400Ae3E9c44cF11b0BFb",
        "408162364619181179876"
      ],
      "transaction": {
        "from": "0x4d05fce7228f04183a097db7f12a29c902655297",
        "to": "0x3a055fa955593f435e6b9a10f54d8985cf5cf754",
        "gas": "0x1168e",
        "value": "0x0",
        "input": "0xa9059cbb0000000000000000000000005c5f5a39ea69a43d726e400ae3e9c44cf11b0bfb0000000000000000000000000000000000000000000000162064041591c2c3e4",
        "nonce": "0x1e",
        "chainId": "0xaa36a7"
      },
      "additionalContracts": [],
      "isFixedGasLimit": false
    },
    {
      "hash": null,
      "transactionType": "CALL",
      "contractName": "ERC20Mock",
      "contractAddress": "0x3a055fa955593f435e6b9a10f54d8985cf5cf754",
      "function": "transfer(address,uint256)",
      "arguments": [
        "0x1587B251B1CA627A2bd23b3A0EB05f34F8a1D3bc",
        "498772291075105455700"
      ],
      "transaction": {
        "from": "0x4d05fce7228f04183a097db7f12a29c902655297",
        "to": "0x3a055fa955593f435e6b9a10f54d8985cf5cf754",
        "gas": "0x1168e",
        "value": "0x0",
        "input": "0xa9059cbb0000000000000000000000001587b251b1ca627a2bd23b3a0eb05f34f8a1d3bc00000000000000000000000000000000000000000000001b09db241fbb657e54",
        "nonce": "0x1f",
        "chainId": "0xaa36a7"
      },
      "additionalContracts": [],
      "isFixedGasLimit": false
    },
    {
      "hash": null,
      "transactionType": "CALL",
      "contractName": "ERC20Mock",
      "contractAddress": "0x3a055fa955593f435e6b9a10f54d8985cf5cf754",
      "function": "transfer(address,uint256)",
      "arguments": [
        "0xbb6B1AE579288C89622450A64d1C5c20856f98Aa",
        "298165588723129852189"
      ],
      "transaction": {
        "from": "0x4d05fce7228f04183a097db7f12a29c902655297",
        "to": "0x3a055fa955593f435e6b9a10f54d8985cf5cf754",
        "gas": "0x1168e",
        "value": "0x0",
        "input": "0xa9059cbb000000000000000000000000bb6b1ae579288c89622450a64d1c5c20856f98aa00000000000000000000000000000000000000000000001029e0f731d75f211d",
        "nonce": "0x20",
        "chainId": "0xaa36a7"
      },
      "additionalContracts": [],
      "isFixedGasLimit": false
    },
    {
      "hash": null,
      "transactionType": "CALL",
      "contractName": "ERC20Mock",
      "contractAddress": "0x3a055fa955593f435e6b9a10f54d8985cf5cf754",
      "function": "transfer(address,uint256)",
      "arguments": [
        "0x1Ace028c380B6f647B816b9A10ACdf9245606AD9",
        "128492506097686765869"
      ],
      "transaction": {
        "from": "0x4d05fce7228f04183a097db7f12a29c902655297",
        "to": "0x3a055fa955593f435e6b9a10f54d8985cf5cf754",
        "gas": "0x1168e",
        "value": "0x0",
        "input": "0xa9059cbb0000000000000000000000001ace028c380b6f647b816b9a10acdf9245606ad9000000000000000000000000000000000000000000000006f73115836c55612d",
        "nonce": "0x21",
        "chainId": "0xaa36a7"
      },
      "additionalContracts": [],
      "isFixedGasLimit": false
    },
    {
      "hash": null,
      "transactionType": "CALL",
      "contractName": "ERC20Mock",
      "contractAddress": "0x3a055fa955593f435e6b9a10f54d8985cf5cf754",
      "function": "transfer(address,uint256)",
      "arguments": [
        "0xeF9B1AdcD28b7Ac8F4f9633A013dCA1B8A4C24C8",
        "314819154321990994347"
      ],
      "transaction": {
        "from": "0x4d05fce7228f04183a097db7f12a29c902655297",
        "to": "0x3a055fa955593f435e6b9a10f54d8985cf5cf754",
        "gas": "0x1168e",
        "value": "0x0",
        "input": "0xa9059cbb000000000000000000000000ef9b1adcd28b7ac8f4f9633a013dca1b8a4c24c800000000000000000000000000000000000000000000001110fe50df5b27c9ab",
        "nonce": "0x22",
        "chainId": "0xaa36a7"
      },
      "additionalContracts": [],
      "isFixedGasLimit": false
    },
    {
      "hash": null,
      "transactionType": "CALL",
      "contractName": "ERC20Mock",
      "contractAddress": "0x3a055fa955593f435e6b9a10f54d8985cf5cf754",
      "function": "transfer(address,uint256)",
      "arguments": [
        "0xBeb0940018C803Ee156A50621E7E37e125D507fE",
        "6081872936579196022"
      ],
      "transaction": {
        "from": "0x4d05fce7228f04183a097db7f12a29c902655297",
        "to": "0x3a055fa955593f435e6b9a10f54d8985cf5cf754",
        "gas": "0x1166d",
        "value": "0x0",
        "input": "0xa9059cbb000000000000000000000000beb0940018c803ee156a50621e7e37e125d507fe0000000000000000000000000000000000000000000000005467273671dd6476",
        "nonce": "0x23",
        "chainId": "0xaa36a7"
      },
      "additionalContracts": [],
      "isFixedGasLimit": false
    },
    {
      "hash": null,
      "transactionType": "CALL",
      "contractName": "ERC20Mock",
      "contractAddress": "0x3a055fa955593f435e6b9a10f54d8985cf5cf754",
      "function": "transfer(address,uint256)",
      "arguments": [
        "0x2A426c675AAc777bE9bE7Ac496Da305cf8C121c7",
        "384231719918231348804"
      ],
      "transaction": {
        "from": "0x4d05fce7228f04183a097db7f12a29c902655297",
        "to": "0x3a055fa955593f435e6b9a10f54d8985cf5cf754",
        "gas": "0x1168e",
        "value": "0x0",
        "input": "0xa9059cbb0000000000000000000000002a426c675aac777be9be7ac496da305cf8c121c7000000000000000000000000000000000000000000000014d4494984cb8fe644",
        "nonce": "0x24",
        "chainId": "0xaa36a7"
      },
      "additionalContracts": [],
      "isFixedGasLimit": false
    },
    {
      "hash": null,
      "transactionType": "CALL",
      "contractName": "ERC20Mock",
      "contractAddress": "0x3a055fa955593f435e6b9a10f54d8985cf5cf754",
      "function": "transfer(address,uint256)",
      "arguments": [
        "0xf509D0179dfB20D34a470C09D88201BB5432A13f",
        "473858015974908125321"
      ],
      "transaction": {
        "from": "0x4d05fce7228f04183a097db7f12a29c902655297",
        "to": "0x3a055fa955593f435e6b9a10f54d8985cf5cf754",
        "gas": "0x1168e",
        "value": "0x0",
        "input": "0xa9059cbb000000000000000000000000f509d0179dfb20d34a470c09d88201bb5432a13f000000000000000000000000000000000000000000000019b019daebfbc66089",
        "nonce": "0x25",
        "chainId": "0xaa36a7"
      },
      "additionalContracts": [],
      "isFixedGasLimit": false
    },
    {
      "hash": null,
      "transactionType": "CALL",
      "contractName": "ERC20Mock",
      "contractAddress": "0x3a055fa955593f435e6b9a10f54d8985cf5cf754",
      "function": "transfer(address,uint256)",
      "arguments": [
        "0x596Eb55772736b79cD2d78Ed9acae0De47bDc15F",
        "183191563911974651239"
      ],
      "transaction": {
        "from": "0x4d05fce7228f04183a097db7f12a29c902655297",
        "to": "0x3a055fa955593f435e6b9a10f54d8985cf5cf754",
        "gas": "0x1168e",
        "value": "0x0",
        "input": "0xa9059cbb000000000000000000000000596eb55772736b79cd2d78ed9acae0de47bdc15f000000000000000000000000000000000000000000000009ee4b2cc995848567",
        "nonce": "0x26",
        "chainId": "0xaa36a7"
      },
      "additionalContracts": [],
      "isFixedGasLimit": false
    },
    {
      "hash": null,
      "transactionType": "CALL",
      "contractName": "ERC20Mock",
      "contractAddress": "0x3a055fa955593f435e6b9a10f54d8985cf5cf754",
      "function": "transfer(address,uint256)",
      "arguments": [
        "0x1eF1D9F1b769c902e1294FD72935F815f6102E4A",
        "163953689572531865753"
      ],
      "transaction": {
        "from": "0x4d05fce7228f04183a097db7f12a29c902655297",
        "to": "0x3a055fa955593f435e6b9a10f54d8985cf5cf754",
        "gas": "0x1167e",
        "value": "0x0",
        "input": "0xa9059cbb0000000000000000000000001ef1d9f1b769c902e1294fd72935f815f6102e4a000000000000000000000000000000000000000000000008e3508400996d8899",
        "nonce": "0x27",
        "chainId": "0xaa36a7"
      },
      "additionalContracts": [],
      "isFixedGasLimit": false
    },
    {
      "hash": null,
      "transactionType": "CALL",
      "contractName": "ERC20Mock",
      "contractAddress": "0x3a055fa955593f435e6b9a10f54d8985cf5cf754",
      "function": "transfer(address,uint256)",
      "arguments": [
        "0x50EF34b5038DCd75b9d80420DC874bD7FaB5db41",
        "342106761384397011964"
      ],
      "transaction": {
        "from": "0x4d05fce7228f04183a097db7f12a29c902655297",
        "to": "0x3a055fa955593f435e6b9a10f54d8985cf5cf754",
        "gas": "0x1168e",
        "value": "0x0",
        "input": "0xa9059cbb00000000000000000000000050ef34b5038dcd75b9d80420dc874bd7fab5db410000000000000000000000000000000000000000000000128baf5eeb784e7bfc",
        "nonce": "0x28",
        "chainId": "0xaa36a7"
      },
      "additionalContracts": [],
      "isFixedGasLimit": false
    },
    {
      "hash": null,
      "transactionType": "CALL",
      "contractName": "ERC20Mock",
      "contractAddress": "0x3a055fa955593f435e6b9a10f54d8985cf5cf754",
      "function": "transfer(address,uint256)",
      "arguments": [
        "0xCc32d93FA0cFcd99D181E76d284967A5D93E557F",
        "5834759401107171158"
      ],
      "transaction": {
        "from": "0x4d05fce7228f04183a097db7f12a29c902655297",
        "to": "0x3a055fa955593f435e6b9a10f54d8985cf5cf754",
        "gas": "0x1167e",
        "value": "0x0",
        "input": "0xa9059cbb000000000000000000000000cc32d93fa0cfcd99d181e76d284967a5d93e557f00000000000000000000000000000000000000000000000050f93ac2ecdd2756",
        "nonce": "0x29",
        "chainId": "0xaa36a7"
      },
      "additionalContracts": [],
      "isFixedGasLimit": false
    },
    {
      "hash": null,
      "transactionType": "CALL",
      "contractName": "ERC20Mock",
      "contractAddress": "0x3a055fa955593f435e6b9a10f54d8985cf5cf754",
      "function": "transfer(address,uint256)",
      "arguments": [
        "0xad0A2c5A055a7989Ff7738a98FBA16E97FcE2504",
        "399566487100406836834"
      ],
      "transaction": {
        "from": "0x4d05fce7228f04183a097db7f12a29c902655297",
        "to": "0x3a055fa955593f435e6b9a10f54d8985cf5cf754",
        "gas": "0x1168e",
        "value": "0x0",
        "input": "0xa9059cbb000000000000000000000000ad0a2c5a055a7989ff7738a98fba16e97fce2504000000000000000000000000000000000000000000000015a91953061a732e62",
        "nonce": "0x2a",
        "chainId": "0xaa36a7"
      },
      "additionalContracts": [],
      "isFixedGasLimit": false
    },
    {
      "hash": null,
      "transactionType": "CALL",
      "contractName": "ERC20Mock",
      "contractAddress": "0x3a055fa955593f435e6b9a10f54d8985cf5cf754",
      "function": "transfer(address,uint256)",
      "arguments": [
        "0x80297fA120792E6Ae7A9D7E1c31C16944374588a",
        "140125442040138034847"
      ],
      "transaction": {
        "from": "0x4d05fce7228f04183a097db7f12a29c902655297",
        "to": "0x3a055fa955593f435e6b9a10f54d8985cf5cf754",
        "gas": "0x1168e",
        "value": "0x0",
        "input": "0xa9059cbb00000000000000000000000080297fa120792e6ae7a9d7e1c31c16944374588a00000000000000000000000000000000000000000000000798a1931e7d03ee9f",
        "nonce": "0x2b",
        "chainId": "0xaa36a7"
      },
      "additionalContracts": [],
      "isFixedGasLimit": false
    },
    {
      "hash": null,
      "transactionType": "CALL",
      "contractName": "ERC20Mock",
      "contractAddress": "0x3a055fa955593f435e6b9a10f54d8985cf5cf754",
      "function": "transfer(address,uint256)",
      "arguments": [
        "0x0913ceE599aCc0EAB747d920946E0F8B904C4124",
        "248287204993621010250"
      ],
      "transaction": {
        "from": "0x4d05fce7228f04183a097db7f12a29c902655297",
        "to": "0x3a055fa955593f435e6b9a10f54d8985cf5cf754",
        "gas": "0x1168e",
        "value": "0x0",
        "input": "0xa9059cbb0000000000000000000000000913cee599acc0eab747d920946e0f8b904c412400000000000000000000000000000000000000000000000d75ad5975af5fa74a",
        "nonce": "0x2c",
        "chainId": "0xaa36a7"
      },
      "additionalContracts": [],
      "isFixedGasLimit": false
    },
    {
      "hash": null,
      "transactionType": "CALL",
      "contractName": "ERC20Mock",
      "contractAddress": "0x3a055fa955593f435e6b9a10f54d8985cf5cf754",
      "function": "transfer(address,uint256)",
      "arguments": [
        "0xD2887Af93A3FDaEc1059Cf53f5599a0dF219A9Fa",
        "444359672533806470602"
      ],
      "transaction": {
        "from": "0x4d05fce7228f04183a097db7f12a29c902655297",
        "to": "0x3a055fa955593f435e6b9a10f54d8985cf5cf754",
        "gas": "0x1168e",
        "value": "0x0",
        "input": "0xa9059cbb000000000000000000000000d2887af93a3fdaec1059cf53f5599a0df219a9fa00000000000000000000000000000000000000000000001816baafd9de6fd5ca",
        "nonce": "0x2d",
        "chainId": "0xaa36a7"
      },
      "additionalContracts": [],
      "isFixedGasLimit": false
    },
    {
      "hash": null,
      "transactionType": "CALL",
      "contractName": "ERC20Mock",
      "contractAddress": "0x3a055fa955593f435e6b9a10f54d8985cf5cf754",
      "function": "transfer(address,uint256)",
      "arguments": [
        "0xC01ccb3ce6d39E63Dd79fC7E450B65c72421823E",
        "25878808428070816332"
      ],
      "transaction": {
        "from": "0x4d05fce7228f04183a097db7f12a29c902655297",
        "to": "0x3a055fa955593f435e6b9a10f54d8985cf5cf754",
        "gas": "0x1168e",
        "value": "0x0",
        "input": "0xa9059cbb000000000000000000000000c01ccb3ce6d39e63dd79fc7e450b65c72421823e0000000000000000000000000000000000000000000000016723ff274d8bca4c",
        "nonce": "0x2e",
        "chainId": "0xaa36a7"
      },
      "additionalContracts": [],
      "isFixedGasLimit": false
    },
    {
      "hash": null,
      "transactionType": "CALL",
      "contractName": "ERC20Mock",
      "contractAddress": "0x3a055fa955593f435e6b9a10f54d8985cf5cf754",
      "function": "transfer(address,uint256)",
      "arguments": [
        "0xa8dE3adC4bc1C676f81661904Ef6B9CB21f9F7E7",
        "102915214487150917637"
      ],
      "transaction": {
        "from": "0x4d05fce7228f04183a097db7f12a29c902655297",
        "to": "0x3a055fa955593f435e6b9a10f54d8985cf5cf754",
        "gas": "0x1168e",
        "value": "0x0",
        "input": "0xa9059cbb000000000000000000000000a8de3adc4bc1c676f81661904ef6b9cb21f9f7e7000000000000000000000000000000000000000000000005943c4a4ed1c3f805",
        "nonce": "0x2f",
        "chainId": "0xaa36a7"
      },
      "additionalContracts": [],
      "isFixedGasLimit": false
    },
    {
      "hash": null,
      "transactionType": "CALL",
      "contractName": "ERC20Mock",
      "contractAddress": "0x3a055fa955593f435e6b9a10f54d8985cf5cf754",
      "function": "transfer(address,uint256)",
      "arguments": [
        "0x67cCd8A51AeDc20D769afBbF3bf8c808885493E5",
        "203521747659807752889"
      ],
      "transaction": {
        "from": "0x4d05fce7228f04183a097db7f12a29c902655297",
        "to": "0x3a055fa955593f435e6b9a10f54d8985cf5cf754",
        "gas": "0x1168e",
        "value": "0x0",
        "input": "0xa9059cbb00000000000000000000000067ccd8a51aedc20d769afbbf3bf8c808885493e500000000000000000000000000000000000000000000000b086e7f31318782b9",
        "nonce": "0x30",
        "chainId": "0xaa36a7"
      },
      "additionalContracts": [],
      "isFixedGasLimit": false
    },
    {
      "hash": null,
      "transactionType": "CALL",
      "contractName": "ERC20Mock",
      "contractAddress": "0x3a055fa955593f435e6b9a10f54d8985cf5cf754",
      "function": "transfer(address,uint256)",
      "arguments": [
        "0x6730f3e04B38686ff38F586aCE02c1d800A8678f",
        "562562068625547134"
      ],
      "transaction": {
        "from": "0x4d05fce7228f04183a097db7f12a29c902655297",
        "to": "0x3a055fa955593f435e6b9a10f54d8985cf5cf754",
        "gas": "0x1166d",
        "value": "0x0",
        "input": "0xa9059cbb0000000000000000000000006730f3e04b38686ff38f586ace02c1d800a8678f00000000000000000000000000000000000000000000000007ce9f388888df7e",
        "nonce": "0x31",
        "chainId": "0xaa36a7"
      },
      "additionalContracts": [],
      "isFixedGasLimit": false
    },
    {
      "hash": null,
      "transactionType": "CALL",
      "contractName": "ERC20Mock",
      "contractAddress": "0x3a055fa955593f435e6b9a10f54d8985cf5cf754",
      "function": "transfer(address,uint256)",
      "arguments": [
        "0x54c8fa67d6bE2227a844E46832DB3FB3e9B7fF71",
        "26091912863862079940"
      ],
      "transaction": {
        "from": "0x4d05fce7228f04183a097db7f12a29c902655297",
        "to": "0x3a055fa955593f435e6b9a10f54d8985cf5cf754",
        "gas": "0x1168e",
        "value": "0x0",
        "input": "0xa9059cbb00000000000000000000000054c8fa67d6be2227a844e46832db3fb3e9b7ff710000000000000000000000000000000000000000000000016a19188240f1c1c4",
        "nonce": "0x32",
        "chainId": "0xaa36a7"
      },
      "additionalContracts": [],
      "isFixedGasLimit": false
    },
    {
      "hash": null,
      "transactionType": "CREATE",
      "contractName": "TokenDistributor",
      "contractAddress": "0x70d82f544bb53ce7e829bf504dee180c4e55b224",
      "function": null,
      "arguments": null,
      "transaction": {
        "from": "0x4d05fce7228f04183a097db7f12a29c902655297",
        "gas": "0x9fe80",
        "value": "0x0",
        "input": "0x60a060405234801561000f575f80fd5b5060015f55336080526080516107c061003c5f395f818160810152818160d0015261018c01526107c05ff3fe60806040526004361061002b575f3560e01c806351cff8d91461003657806382a86d9e14610057575f80fd5b3661003257005b5f80fd5b348015610041575f80fd5b506100556100503660046105a3565b610076565b005b348015610062575f80fd5b5061005561007136600461060d565b610265565b336001600160a01b037f000000000000000000000000000000000000000000000000000000000000000016146100bf5760405163d238ed5960e01b815260040160405180910390fd5b6001600160a01b038116610166575f7f00000000000000000000000000000000000000000000000000000000000000006001600160a01b031647614e20906040515f60405180830381858888f193505050503d805f811461013b576040519150601f19603f3d011682016040523d82523d5f602084013e610140565b606091505b505090508061016257604051631fa55c0760e11b815260040160405180910390fd5b5050565b6040516370a0823160e01b81523060048201526001600160a01b0382169063a9059cbb907f00000000000000000000000000000000000000000000000000000000000000009083906370a0823190602401602060405180830381865afa1580156101d2573d5f803e3d5ffd5b505050506040513d601f19601f820116820180604052508101906101f6919061068a565b6040516001600160e01b031960e085901b1681526001600160a01b03909216600483015260248201526044016020604051808303815f875af115801561023e573d5f803e3d5ffd5b505050506040513d601f19601f8201168201806040525081019061016291906106a1565b50565b61026d61038a565b8383805f5b81811015610320575f6102868260016106c0565b90505b82811015610317578484828181106102a3576102a36106e5565b90506020020160208101906102b891906105a3565b6001600160a01b03168585848181106102d3576102d36106e5565b90506020020160208101906102e891906105a3565b6001600160a01b03160361030f57604051632f119e0960e11b815260040160405180910390fd5b600101610289565b50600101610272565b5061032e88888888886103b2565b336001600160a01b03167f4114dcfe2aaaf6aa4f0734763cbe121058528a2e296173d8a63900e13966e064888888888d60405161036f9594939291906106f9565b60405180910390a250505061038360015f55565b5050505050565b60025f54036103ac57604051633ee5aeb560e01b815260040160405180910390fd5b60025f55565b828181146103d35760405163b68600c760e01b815260040160405180910390fd5b5f5b818110156104b6575f8686838181106103f0576103f06106e5565b905060200201602081019061040591906105a3565b6001600160a01b03160361042c5760405163290802d360e11b815260040160405180910390fd5b83838281811061043e5761043e6106e5565b905060200201355f0361046457604051631161496d60e01b815260040160405180910390fd5b6104ae873388888581811061047b5761047b6106e5565b905060200201602081019061049091906105a3565b8787868181106104a2576104a26106e5565b905060200201356104bf565b6001016103d5565b50505050505050565b604080516001600160a01b0385811660248301528416604482015260648082018490528251808303909101815260849091019091526020810180516001600160e01b03166323b872dd60e01b17905261051990859061051f565b50505050565b5f8060205f8451602086015f885af18061053e576040513d5f823e3d81fd5b50505f513d91508115610555578060011415610562565b6001600160a01b0384163b155b1561051957604051635274afe760e01b81526001600160a01b038516600482015260240160405180910390fd5b6001600160a01b0381168114610262575f80fd5b5f602082840312156105b3575f80fd5b81356105be8161058f565b9392505050565b5f8083601f8401126105d5575f80fd5b50813567ffffffffffffffff8111156105ec575f80fd5b6020830191508360208260051b8501011115610606575f80fd5b9250929050565b5f805f805f60608688031215610621575f80fd5b853561062c8161058f565b9450602086013567ffffffffffffffff80821115610648575f80fd5b61065489838a016105c5565b9096509450604088013591508082111561066c575f80fd5b50610679888289016105c5565b969995985093965092949392505050565b5f6020828403121561069a575f80fd5b5051919050565b5f602082840312156106b1575f80fd5b815180151581146105be575f80fd5b808201808211156106df57634e487b7160e01b5f52601160045260245ffd5b92915050565b634e487b7160e01b5f52603260045260245ffd5b606080825281018590525f8660808301825b8881101561073b57823561071e8161058f565b6001600160a01b031682526020928301929091019060010161070b565b5083810360208501528581526001600160fb1b0386111561075a575f80fd5b8560051b9150818760208301376001600160a01b039490941660409390930192909252500160200194935050505056fea2646970667358221220694ea93af0155a16fedb8ab65ac6b8f14f770779cf9f9e6f65f75e0e5d74c11a64736f6c63430008180033",
        "nonce": "0x33",
        "chainId": "0xaa36a7"
      },
      "additionalContracts": [],
      "isFixedGasLimit": false
    },
    {
      "hash": null,
      "transactionType": "CREATE",
      "contractName": "SecondaryERC20Mock",
      "contractAddress": "0x97e50d90614e182cd4c70c97c937fd20447aed67",
      "function": null,
      "arguments": [
        "SecondaryERC20Mock",
        "SECMERC",
        "1000000000000000000000000",
        "1000000000000000000000"
      ],
      "transaction": {
        "from": "0x4d05fce7228f04183a097db7f12a29c902655297",
        "gas": "0xcedf3",
        "value": "0x0",
        "input": "0x608060405234801562000010575f80fd5b5060405162000d0738038062000d078339810160408190526200003391620002a4565b83836003620000438382620003a3565b506004620000528282620003a3565b5050506200006733836200007460201b60201c565b6005555062000495915050565b6001600160a01b038216620000a35760405163ec442f0560e01b81525f60048201526024015b60405180910390fd5b620000b05f8383620000b4565b5050565b6001600160a01b038316620000e2578060025f828254620000d691906200046f565b90915550620001549050565b6001600160a01b0383165f9081526020819052604090205481811015620001365760405163391434e360e21b81526001600160a01b038516600482015260248101829052604481018390526064016200009a565b6001600160a01b0384165f9081526020819052604090209082900390555b6001600160a01b038216620001725760028054829003905562000190565b6001600160a01b0382165f9081526020819052604090208054820190555b816001600160a01b0316836001600160a01b03167fddf252ad1be2c89b69c2b068fc378daa952ba7f163c4a11628f55a4df523b3ef83604051620001d691815260200190565b60405180910390a3505050565b634e487b7160e01b5f52604160045260245ffd5b5f82601f83011262000207575f80fd5b81516001600160401b0380821115620002245762000224620001e3565b604051601f8301601f19908116603f011681019082821181831017156200024f576200024f620001e3565b81604052838152602092508660208588010111156200026c575f80fd5b5f91505b838210156200028f578582018301518183018401529082019062000270565b5f602085830101528094505050505092915050565b5f805f8060808587031215620002b8575f80fd5b84516001600160401b0380821115620002cf575f80fd5b620002dd88838901620001f7565b95506020870151915080821115620002f3575f80fd5b506200030287828801620001f7565b604087015160609097015195989097509350505050565b600181811c908216806200032e57607f821691505b6020821081036200034d57634e487b7160e01b5f52602260045260245ffd5b50919050565b601f8211156200039e57805f5260205f20601f840160051c810160208510156200037a5750805b601f840160051c820191505b818110156200039b575f815560010162000386565b50505b505050565b81516001600160401b03811115620003bf57620003bf620001e3565b620003d781620003d0845462000319565b8462000353565b602080601f8311600181146200040d575f8415620003f55750858301515b5f19600386901b1c1916600185901b17855562000467565b5f85815260208120601f198616915b828110156200043d578886015182559484019460019091019084016200041c565b50858210156200045b57878501515f19600388901b60f8161c191681555b505060018460011b0185555b505050505050565b808201808211156200048f57634e487b7160e01b5f52601160045260245ffd5b92915050565b61086480620004a35f395ff3fe608060405234801561000f575f80fd5b50600436106100cb575f3560e01c806370a08231116100885780639dc29fac116100635780639dc29fac14610192578063a9059cbb146101a5578063b86d1d63146101b8578063dd62ed3e146101cb575f80fd5b806370a082311461015957806395d89b41146101815780639c28143014610189575f80fd5b806306fdde03146100cf578063095ea7b3146100ed57806318160ddd1461011057806323b872dd14610122578063313ce5671461013557806340c10f1914610144575b5f80fd5b6100d7610203565b6040516100e491906106be565b60405180910390f35b6101006100fb366004610725565b610293565b60405190151581526020016100e4565b6002545b6040519081526020016100e4565b61010061013036600461074d565b6102ac565b604051601281526020016100e4565b610157610152366004610725565b6102cf565b005b610114610167366004610786565b6001600160a01b03165f9081526020819052604090205490565b6100d76102dd565b61011460055481565b6101576101a0366004610725565b6102ec565b6101006101b3366004610725565b6102f6565b6101576101c6366004610786565b610303565b6101146101d93660046107a6565b6001600160a01b039182165f90815260016020908152604080832093909416825291909152205490565b606060038054610212906107d7565b80601f016020809104026020016040519081016040528092919081815260200182805461023e906107d7565b80156102895780601f1061026057610100808354040283529160200191610289565b820191905f5260205f20905b81548152906001019060200180831161026c57829003601f168201915b5050505050905090565b5f336102a0818585610374565b60019150505b92915050565b5f336102b9858285610386565b6102c4858585610401565b506001949350505050565b6102d9828261045e565b5050565b606060048054610212906107d7565b6102d98282610492565b5f336102a0818585610401565b5f600554116103655760405162461bcd60e51b8152602060048201526024808201527f46617563657420616d6f756e74206d75737420626520677265617465722074686044820152630616e20360e41b60648201526084015b60405180910390fd5b6103718160055461045e565b50565b61038183838360016104c6565b505050565b6001600160a01b038381165f908152600160209081526040808320938616835292905220545f1981146103fb57818110156103ed57604051637dc7a0d960e11b81526001600160a01b0384166004820152602481018290526044810183905260640161035c565b6103fb84848484035f6104c6565b50505050565b6001600160a01b03831661042a57604051634b637e8f60e11b81525f600482015260240161035c565b6001600160a01b0382166104535760405163ec442f0560e01b81525f600482015260240161035c565b610381838383610598565b6001600160a01b0382166104875760405163ec442f0560e01b81525f600482015260240161035c565b6102d95f8383610598565b6001600160a01b0382166104bb57604051634b637e8f60e11b81525f600482015260240161035c565b6102d9825f83610598565b6001600160a01b0384166104ef5760405163e602df0560e01b81525f600482015260240161035c565b6001600160a01b03831661051857604051634a1406b160e11b81525f600482015260240161035c565b6001600160a01b038085165f90815260016020908152604080832093871683529290522082905580156103fb57826001600160a01b0316846001600160a01b03167f8c5be1e5ebec7d5bd14f71427d1e84f3dd0314c0f7b2291e5b200ac8c7c3b9258460405161058a91815260200190565b60405180910390a350505050565b6001600160a01b0383166105c2578060025f8282546105b7919061080f565b909155506106329050565b6001600160a01b0383165f90815260208190526040902054818110156106145760405163391434e360e21b81526001600160a01b0385166004820152602481018290526044810183905260640161035c565b6001600160a01b0384165f9081526020819052604090209082900390555b6001600160a01b03821661064e5760028054829003905561066c565b6001600160a01b0382165f9081526020819052604090208054820190555b816001600160a01b0316836001600160a01b03167fddf252ad1be2c89b69c2b068fc378daa952ba7f163c4a11628f55a4df523b3ef836040516106b191815260200190565b60405180910390a3505050565b5f602080835283518060208501525f5b818110156106ea578581018301518582016040015282016106ce565b505f604082860101526040601f19601f8301168501019250505092915050565b80356001600160a01b0381168114610720575f80fd5b919050565b5f8060408385031215610736575f80fd5b61073f8361070a565b946020939093013593505050565b5f805f6060848603121561075f575f80fd5b6107688461070a565b92506107766020850161070a565b9150604084013590509250925092565b5f60208284031215610796575f80fd5b61079f8261070a565b9392505050565b5f80604083850312156107b7575f80fd5b6107c08361070a565b91506107ce6020840161070a565b90509250929050565b600181811c908216806107eb57607f821691505b60208210810361080957634e487b7160e01b5f52602260045260245ffd5b50919050565b808201808211156102a657634e487b7160e01b5f52601160045260245ffdfea2646970667358221220a6a89fd6e7087b02793529610d7401ef67ca583ff48a99be3a0f09601b50f2f864736f6c63430008180033000000000000000000000000000000000000000000000000000000000000008000000000000000000000000000000000000000000000000000000000000000c000000000000000000000000000000000000000000000d3c21bcecceda100000000000000000000000000000000000000000000000000003635c9adc5dea0000000000000000000000000000000000000000000000000000000000000000000125365636f6e6461727945524332304d6f636b000000000000000000000000000000000000000000000000000000000000000000000000000000000000000000075345434d45524300000000000000000000000000000000000000000000000000",
        "nonce": "0x34",
        "chainId": "0xaa36a7"
      },
      "additionalContracts": [],
      "isFixedGasLimit": false
    }
  ],
  "receipts": [],
  "libraries": [],
  "pending": [],
  "returns": {},
  "timestamp": 1732212322,
  "chain": 11155111,
  "commit": "548aada"
}