{
  "transactions": [
    {
      "hash": "0x12d8d615eba6ff313ba28f3293246838baaa67805f59ad82fda987f2afbe5686",
      "transactionType": "CREATE",
      "contractName": "ERC20Mock",
      "contractAddress": "0x4dc34690e9b1fe0bfcdbc05d94683012e744e095",
      "function": null,
      "arguments": [
        "ERC20Mock",
        "MERC",
        "1000000000000000000000000",
        "1000000000000000000000"
      ],
      "transaction": {
        "from": "0x4d05fce7228f04183a097db7f12a29c902655297",
        "gas": "0xced38",
        "value": "0x0",
        "input": "0x608060405234801562000010575f80fd5b5060405162000d0738038062000d078339810160408190526200003391620002a4565b83836003620000438382620003a3565b506004620000528282620003a3565b5050506200006733836200007460201b60201c565b6005555062000495915050565b6001600160a01b038216620000a35760405163ec442f0560e01b81525f60048201526024015b60405180910390fd5b620000b05f8383620000b4565b5050565b6001600160a01b038316620000e2578060025f828254620000d691906200046f565b90915550620001549050565b6001600160a01b0383165f9081526020819052604090205481811015620001365760405163391434e360e21b81526001600160a01b038516600482015260248101829052604481018390526064016200009a565b6001600160a01b0384165f9081526020819052604090209082900390555b6001600160a01b038216620001725760028054829003905562000190565b6001600160a01b0382165f9081526020819052604090208054820190555b816001600160a01b0316836001600160a01b03167fddf252ad1be2c89b69c2b068fc378daa952ba7f163c4a11628f55a4df523b3ef83604051620001d691815260200190565b60405180910390a3505050565b634e487b7160e01b5f52604160045260245ffd5b5f82601f83011262000207575f80fd5b81516001600160401b0380821115620002245762000224620001e3565b604051601f8301601f19908116603f011681019082821181831017156200024f576200024f620001e3565b81604052838152602092508660208588010111156200026c575f80fd5b5f91505b838210156200028f578582018301518183018401529082019062000270565b5f602085830101528094505050505092915050565b5f805f8060808587031215620002b8575f80fd5b84516001600160401b0380821115620002cf575f80fd5b620002dd88838901620001f7565b95506020870151915080821115620002f3575f80fd5b506200030287828801620001f7565b604087015160609097015195989097509350505050565b600181811c908216806200032e57607f821691505b6020821081036200034d57634e487b7160e01b5f52602260045260245ffd5b50919050565b601f8211156200039e57805f5260205f20601f840160051c810160208510156200037a5750805b601f840160051c820191505b818110156200039b575f815560010162000386565b50505b505050565b81516001600160401b03811115620003bf57620003bf620001e3565b620003d781620003d0845462000319565b8462000353565b602080601f8311600181146200040d575f8415620003f55750858301515b5f19600386901b1c1916600185901b17855562000467565b5f85815260208120601f198616915b828110156200043d578886015182559484019460019091019084016200041c565b50858210156200045b57878501515f19600388901b60f8161c191681555b505060018460011b0185555b505050505050565b808201808211156200048f57634e487b7160e01b5f52601160045260245ffd5b92915050565b61086480620004a35f395ff3fe608060405234801561000f575f80fd5b50600436106100cb575f3560e01c806370a08231116100885780639dc29fac116100635780639dc29fac14610192578063a9059cbb146101a5578063b86d1d63146101b8578063dd62ed3e146101cb575f80fd5b806370a082311461015957806395d89b41146101815780639c28143014610189575f80fd5b806306fdde03146100cf578063095ea7b3146100ed57806318160ddd1461011057806323b872dd14610122578063313ce5671461013557806340c10f1914610144575b5f80fd5b6100d7610203565b6040516100e491906106be565b60405180910390f35b6101006100fb366004610725565b610293565b60405190151581526020016100e4565b6002545b6040519081526020016100e4565b61010061013036600461074d565b6102ac565b604051601281526020016100e4565b610157610152366004610725565b6102cf565b005b610114610167366004610786565b6001600160a01b03165f9081526020819052604090205490565b6100d76102dd565b61011460055481565b6101576101a0366004610725565b6102ec565b6101006101b3366004610725565b6102f6565b6101576101c6366004610786565b610303565b6101146101d93660046107a6565b6001600160a01b039182165f90815260016020908152604080832093909416825291909152205490565b606060038054610212906107d7565b80601f016020809104026020016040519081016040528092919081815260200182805461023e906107d7565b80156102895780601f1061026057610100808354040283529160200191610289565b820191905f5260205f20905b81548152906001019060200180831161026c57829003601f168201915b5050505050905090565b5f336102a0818585610374565b60019150505b92915050565b5f336102b9858285610386565b6102c4858585610401565b506001949350505050565b6102d9828261045e565b5050565b606060048054610212906107d7565b6102d98282610492565b5f336102a0818585610401565b5f600554116103655760405162461bcd60e51b8152602060048201526024808201527f46617563657420616d6f756e74206d75737420626520677265617465722074686044820152630616e20360e41b60648201526084015b60405180910390fd5b6103718160055461045e565b50565b61038183838360016104c6565b505050565b6001600160a01b038381165f908152600160209081526040808320938616835292905220545f1981146103fb57818110156103ed57604051637dc7a0d960e11b81526001600160a01b0384166004820152602481018290526044810183905260640161035c565b6103fb84848484035f6104c6565b50505050565b6001600160a01b03831661042a57604051634b637e8f60e11b81525f600482015260240161035c565b6001600160a01b0382166104535760405163ec442f0560e01b81525f600482015260240161035c565b610381838383610598565b6001600160a01b0382166104875760405163ec442f0560e01b81525f600482015260240161035c565b6102d95f8383610598565b6001600160a01b0382166104bb57604051634b637e8f60e11b81525f600482015260240161035c565b6102d9825f83610598565b6001600160a01b0384166104ef5760405163e602df0560e01b81525f600482015260240161035c565b6001600160a01b03831661051857604051634a1406b160e11b81525f600482015260240161035c565b6001600160a01b038085165f90815260016020908152604080832093871683529290522082905580156103fb57826001600160a01b0316846001600160a01b03167f8c5be1e5ebec7d5bd14f71427d1e84f3dd0314c0f7b2291e5b200ac8c7c3b9258460405161058a91815260200190565b60405180910390a350505050565b6001600160a01b0383166105c2578060025f8282546105b7919061080f565b909155506106329050565b6001600160a01b0383165f90815260208190526040902054818110156106145760405163391434e360e21b81526001600160a01b0385166004820152602481018290526044810183905260640161035c565b6001600160a01b0384165f9081526020819052604090209082900390555b6001600160a01b03821661064e5760028054829003905561066c565b6001600160a01b0382165f9081526020819052604090208054820190555b816001600160a01b0316836001600160a01b03167fddf252ad1be2c89b69c2b068fc378daa952ba7f163c4a11628f55a4df523b3ef836040516106b191815260200190565b60405180910390a3505050565b5f602080835283518060208501525f5b818110156106ea578581018301518582016040015282016106ce565b505f604082860101526040601f19601f8301168501019250505092915050565b80356001600160a01b0381168114610720575f80fd5b919050565b5f8060408385031215610736575f80fd5b61073f8361070a565b946020939093013593505050565b5f805f6060848603121561075f575f80fd5b6107688461070a565b92506107766020850161070a565b9150604084013590509250925092565b5f60208284031215610796575f80fd5b61079f8261070a565b9392505050565b5f80604083850312156107b7575f80fd5b6107c08361070a565b91506107ce6020840161070a565b90509250929050565b600181811c908216806107eb57607f821691505b60208210810361080957634e487b7160e01b5f52602260045260245ffd5b50919050565b808201808211156102a657634e487b7160e01b5f52601160045260245ffdfea26469706673582212202085e9efc9e956bb59b0c3aeab25b0eea417823936fe56be3f83fcda597989e864736f6c63430008180033000000000000000000000000000000000000000000000000000000000000008000000000000000000000000000000000000000000000000000000000000000c000000000000000000000000000000000000000000000d3c21bcecceda100000000000000000000000000000000000000000000000000003635c9adc5dea00000000000000000000000000000000000000000000000000000000000000000000945524332304d6f636b000000000000000000000000000000000000000000000000000000000000000000000000000000000000000000000000000000000000044d45524300000000000000000000000000000000000000000000000000000000",
        "nonce": "0x17",
        "chainId": "0x14a34"
      },
      "additionalContracts": [],
      "isFixedGasLimit": false
    },
    {
      "hash": "0x4626a8cf944b65e80e26676701917e88af4c6f85165c594f19a5500688c3bdd8",
      "transactionType": "CALL",
      "contractName": "ERC20Mock",
      "contractAddress": "0x4dc34690e9b1fe0bfcdbc05d94683012e744e095",
      "function": "transfer(address,uint256)",
      "arguments": [
        "0xa433f323541CF82f97395076B5F83a7A06F1646c",
        "341814864066640691746"
      ],
      "transaction": {
        "from": "0x4d05fce7228f04183a097db7f12a29c902655297",
        "to": "0x4dc34690e9b1fe0bfcdbc05d94683012e744e095",
        "gas": "0x1168e",
        "value": "0x0",
        "input": "0xa9059cbb000000000000000000000000a433f323541cf82f97395076b5f83a7a06f1646c00000000000000000000000000000000000000000000001287a257db188d4222",
        "nonce": "0x18",
        "chainId": "0x14a34"
      },
      "additionalContracts": [],
      "isFixedGasLimit": false
    },
    {
      "hash": "0x99ae0ba8b79b76256cb5a2a730f131ef992e2546c221bfa8d979bac02638f8c8",
      "transactionType": "CALL",
      "contractName": "ERC20Mock",
      "contractAddress": "0x4dc34690e9b1fe0bfcdbc05d94683012e744e095",
      "function": "transfer(address,uint256)",
      "arguments": [
        "0xF80999DCaF1cd7eE68F8b72C4e9451581A92bb56",
        "250812474659937841408"
      ],
      "transaction": {
        "from": "0x4d05fce7228f04183a097db7f12a29c902655297",
        "to": "0x4dc34690e9b1fe0bfcdbc05d94683012e744e095",
        "gas": "0x1167e",
        "value": "0x0",
        "input": "0xa9059cbb000000000000000000000000f80999dcaf1cd7ee68f8b72c4e9451581a92bb5600000000000000000000000000000000000000000000000d98b8e8d77e41f100",
        "nonce": "0x19",
        "chainId": "0x14a34"
      },
      "additionalContracts": [],
      "isFixedGasLimit": false
    },
    {
      "hash": "0x2e507573eb6078d180fe70f25017b950855333d8259a582fc36bd47f2567cc6a",
      "transactionType": "CALL",
      "contractName": "ERC20Mock",
      "contractAddress": "0x4dc34690e9b1fe0bfcdbc05d94683012e744e095",
      "function": "transfer(address,uint256)",
      "arguments": [
        "0x217Dc6A3130a6ab45942219DC4258d680BA5e160",
        "497361287305805255673"
      ],
      "transaction": {
        "from": "0x4d05fce7228f04183a097db7f12a29c902655297",
        "to": "0x4dc34690e9b1fe0bfcdbc05d94683012e744e095",
        "gas": "0x1168e",
        "value": "0x0",
        "input": "0xa9059cbb000000000000000000000000217dc6a3130a6ab45942219dc4258d680ba5e16000000000000000000000000000000000000000000000001af6463fabed8553f9",
        "nonce": "0x1a",
        "chainId": "0x14a34"
      },
      "additionalContracts": [],
      "isFixedGasLimit": false
    },
    {
      "hash": "0x36fe516185f945dc3533c3e6331e244ce760437d2ba555bcb50dc3df3666c4ec",
      "transactionType": "CALL",
      "contractName": "ERC20Mock",
      "contractAddress": "0x4dc34690e9b1fe0bfcdbc05d94683012e744e095",
      "function": "transfer(address,uint256)",
      "arguments": [
        "0xC9C673b3B2857C3dc44DA8dbeb4FdAD7908edcd3",
        "195805811274310713468"
      ],
      "transaction": {
        "from": "0x4d05fce7228f04183a097db7f12a29c902655297",
        "to": "0x4dc34690e9b1fe0bfcdbc05d94683012e744e095",
        "gas": "0x1168e",
        "value": "0x0",
        "input": "0xa9059cbb000000000000000000000000c9c673b3b2857c3dc44da8dbeb4fdad7908edcd300000000000000000000000000000000000000000000000a9d59fbee2a77807c",
        "nonce": "0x1b",
        "chainId": "0x14a34"
      },
      "additionalContracts": [],
      "isFixedGasLimit": false
    },
    {
      "hash": "0x20f04c034443b975d48204d11943905bbbab87c628f5b43834ff98474cd165ad",
      "transactionType": "CALL",
      "contractName": "ERC20Mock",
      "contractAddress": "0x4dc34690e9b1fe0bfcdbc05d94683012e744e095",
      "function": "transfer(address,uint256)",
      "arguments": [
        "0xEC9261B092BD9Cb33687c6ffeEffDD90aA9e27Ef",
        "487075251303851653695"
      ],
      "transaction": {
        "from": "0x4d05fce7228f04183a097db7f12a29c902655297",
        "to": "0x4dc34690e9b1fe0bfcdbc05d94683012e744e095",
        "gas": "0x1168e",
        "value": "0x0",
        "input": "0xa9059cbb000000000000000000000000ec9261b092bd9cb33687c6ffeeffdd90aa9e27ef00000000000000000000000000000000000000000000001a6786e86cf2327a3f",
        "nonce": "0x1c",
        "chainId": "0x14a34"
      },
      "additionalContracts": [],
      "isFixedGasLimit": false
    },
    {
      "hash": "0x11433c6bf0cd488aa7acd17bedc3c19887c897866bc339687bf2dfb086e45a14",
      "transactionType": "CALL",
      "contractName": "ERC20Mock",
      "contractAddress": "0x4dc34690e9b1fe0bfcdbc05d94683012e744e095",
      "function": "transfer(address,uint256)",
      "arguments": [
        "0xF50c5Edc171ad5c5Cccac6f11AdB48dB2683C530",
        "201822720186582180516"
      ],
      "transaction": {
        "from": "0x4d05fce7228f04183a097db7f12a29c902655297",
        "to": "0x4dc34690e9b1fe0bfcdbc05d94683012e744e095",
        "gas": "0x1168e",
        "value": "0x0",
        "input": "0xa9059cbb000000000000000000000000f50c5edc171ad5c5cccac6f11adb48db2683c53000000000000000000000000000000000000000000000000af0da56b5044a22a4",
        "nonce": "0x1d",
        "chainId": "0x14a34"
      },
      "additionalContracts": [],
      "isFixedGasLimit": false
    },
    {
      "hash": "0xe6f36c786aa0c1ab9e1b781771020e051eac409698902506f06bccbbc29a3fa3",
      "transactionType": "CALL",
      "contractName": "ERC20Mock",
      "contractAddress": "0x4dc34690e9b1fe0bfcdbc05d94683012e744e095",
      "function": "transfer(address,uint256)",
      "arguments": [
        "0x1cF85De2e11B6574584489a48D2A4020Eef60E67",
        "76035509714013592362"
      ],
      "transaction": {
        "from": "0x4d05fce7228f04183a097db7f12a29c902655297",
        "to": "0x4dc34690e9b1fe0bfcdbc05d94683012e744e095",
        "gas": "0x1168e",
        "value": "0x0",
        "input": "0xa9059cbb0000000000000000000000001cf85de2e11b6574584489a48d2a4020eef60e670000000000000000000000000000000000000000000000041f34653b438b1b2a",
        "nonce": "0x1e",
        "chainId": "0x14a34"
      },
      "additionalContracts": [],
      "isFixedGasLimit": false
    },
    {
      "hash": "0x9d29f871348c318ad7e3192b324febc6f2994750efa33ae87a8652f30722f8c3",
      "transactionType": "CALL",
      "contractName": "ERC20Mock",
      "contractAddress": "0x4dc34690e9b1fe0bfcdbc05d94683012e744e095",
      "function": "transfer(address,uint256)",
      "arguments": [
        "0x58a772A130b03f3Cc065165F936D14E655a07bFd",
        "67355939877046709"
      ],
      "transaction": {
        "from": "0x4d05fce7228f04183a097db7f12a29c902655297",
        "to": "0x4dc34690e9b1fe0bfcdbc05d94683012e744e095",
        "gas": "0x1166d",
        "value": "0x0",
        "input": "0xa9059cbb00000000000000000000000058a772a130b03f3cc065165f936d14e655a07bfd00000000000000000000000000000000000000000000000000ef4bded5e249b5",
        "nonce": "0x1f",
        "chainId": "0x14a34"
      },
      "additionalContracts": [],
      "isFixedGasLimit": false
    },
    {
      "hash": "0xba2784a54179528672cd2fb9f0adb66e637848a7d8be7b898b9feaeacf556f00",
      "transactionType": "CALL",
      "contractName": "ERC20Mock",
      "contractAddress": "0x4dc34690e9b1fe0bfcdbc05d94683012e744e095",
      "function": "transfer(address,uint256)",
      "arguments": [
        "0x12fec127100A46e81BD09C1b07cF3D0F0C0de070",
        "201695878012603225900"
      ],
      "transaction": {
        "from": "0x4d05fce7228f04183a097db7f12a29c902655297",
        "to": "0x4dc34690e9b1fe0bfcdbc05d94683012e744e095",
        "gas": "0x1168e",
        "value": "0x0",
        "input": "0xa9059cbb00000000000000000000000012fec127100a46e81bd09c1b07cf3d0f0c0de07000000000000000000000000000000000000000000000000aef17b46c01bc572c",
        "nonce": "0x20",
        "chainId": "0x14a34"
      },
      "additionalContracts": [],
      "isFixedGasLimit": false
    },
    {
      "hash": "0xe7adb4240cf559ab951601bea0d732288ba4465ae517fb0057ac12e0d7f9f241",
      "transactionType": "CALL",
      "contractName": "ERC20Mock",
      "contractAddress": "0x4dc34690e9b1fe0bfcdbc05d94683012e744e095",
      "function": "transfer(address,uint256)",
      "arguments": [
        "0x2613D469E2de1A4554870d7Ad374558ee4EABd41",
        "161258078831247762528"
      ],
      "transaction": {
        "from": "0x4d05fce7228f04183a097db7f12a29c902655297",
        "to": "0x4dc34690e9b1fe0bfcdbc05d94683012e744e095",
        "gas": "0x1168e",
        "value": "0x0",
        "input": "0xa9059cbb0000000000000000000000002613d469e2de1a4554870d7ad374558ee4eabd41000000000000000000000000000000000000000000000008bde7c850aa762460",
        "nonce": "0x21",
        "chainId": "0x14a34"
      },
      "additionalContracts": [],
      "isFixedGasLimit": false
    },
    {
      "hash": "0x52539ae2ac1b8da63a87d82158ca2efa4a4b6f18ecee7457ff1ea02d5ed7a4bb",
      "transactionType": "CALL",
      "contractName": "ERC20Mock",
      "contractAddress": "0x4dc34690e9b1fe0bfcdbc05d94683012e744e095",
      "function": "transfer(address,uint256)",
      "arguments": [
        "0x1a376cFe2c4d4BA53843a1Dc5f9c0758C51c4F37",
        "314434672732035222893"
      ],
      "transaction": {
        "from": "0x4d05fce7228f04183a097db7f12a29c902655297",
        "to": "0x4dc34690e9b1fe0bfcdbc05d94683012e744e095",
        "gas": "0x1168e",
        "value": "0x0",
        "input": "0xa9059cbb0000000000000000000000001a376cfe2c4d4ba53843a1dc5f9c0758c51c4f370000000000000000000000000000000000000000000000110ba85ce74b2a0d6d",
        "nonce": "0x22",
        "chainId": "0x14a34"
      },
      "additionalContracts": [],
      "isFixedGasLimit": false
    },
    {
      "hash": "0x9f11a4592033a8948e4697e318c9cd8c24b03de604fa3d7bdb9c8a3fc68b9e2e",
      "transactionType": "CALL",
      "contractName": "ERC20Mock",
      "contractAddress": "0x4dc34690e9b1fe0bfcdbc05d94683012e744e095",
      "function": "transfer(address,uint256)",
      "arguments": [
        "0xf86ae957b39B7d99F43E33B363B9c2384A16fAb1",
        "366560917731763380920"
      ],
      "transaction": {
        "from": "0x4d05fce7228f04183a097db7f12a29c902655297",
        "to": "0x4dc34690e9b1fe0bfcdbc05d94683012e744e095",
        "gas": "0x1168e",
        "value": "0x0",
        "input": "0xa9059cbb000000000000000000000000f86ae957b39b7d99f43e33b363b9c2384a16fab1000000000000000000000000000000000000000000000013df0dfc8dd6f162b8",
        "nonce": "0x23",
        "chainId": "0x14a34"
      },
      "additionalContracts": [],
      "isFixedGasLimit": false
    },
    {
      "hash": "0x2a4f6b0daad53722afd9d0f153049a6f6a87c34079b709093105a842b364a1a5",
      "transactionType": "CALL",
      "contractName": "ERC20Mock",
      "contractAddress": "0x4dc34690e9b1fe0bfcdbc05d94683012e744e095",
      "function": "transfer(address,uint256)",
      "arguments": [
        "0x77683a6A830bE99Dc2456C4F4F274E8e6FEE4437",
        "276384972279936446349"
      ],
      "transaction": {
        "from": "0x4d05fce7228f04183a097db7f12a29c902655297",
        "to": "0x4dc34690e9b1fe0bfcdbc05d94683012e744e095",
        "gas": "0x1168e",
        "value": "0x0",
        "input": "0xa9059cbb00000000000000000000000077683a6a830be99dc2456c4f4f274e8e6fee443700000000000000000000000000000000000000000000000efb9cabf031cbef8d",
        "nonce": "0x24",
        "chainId": "0x14a34"
      },
      "additionalContracts": [],
      "isFixedGasLimit": false
    },
    {
      "hash": "0x1ec1a26ad080476c96ce27643b667678a884ffc9ca0dd39a4ff528b6671c9565",
      "transactionType": "CALL",
      "contractName": "ERC20Mock",
      "contractAddress": "0x4dc34690e9b1fe0bfcdbc05d94683012e744e095",
      "function": "transfer(address,uint256)",
      "arguments": [
        "0x650243A0eC0e89B6CadA865dB44EABE20C6960c6",
        "400548276150682579314"
      ],
      "transaction": {
        "from": "0x4d05fce7228f04183a097db7f12a29c902655297",
        "to": "0x4dc34690e9b1fe0bfcdbc05d94683012e744e095",
        "gas": "0x1168e",
        "value": "0x0",
        "input": "0xa9059cbb000000000000000000000000650243a0ec0e89b6cada865db44eabe20c6960c6000000000000000000000000000000000000000000000015b6b956f69c80f172",
        "nonce": "0x25",
        "chainId": "0x14a34"
      },
      "additionalContracts": [],
      "isFixedGasLimit": false
    },
    {
      "hash": "0x8444bcf66dd548ed0aba5f2569b9a76a2a692b35bfe0e9fbd6c0e4e341183e25",
      "transactionType": "CALL",
      "contractName": "ERC20Mock",
      "contractAddress": "0x4dc34690e9b1fe0bfcdbc05d94683012e744e095",
      "function": "transfer(address,uint256)",
      "arguments": [
        "0x41C45aC089a3Ef00CA2636809b376F2b7AC01D7B",
        "71868358460036086387"
      ],
      "transaction": {
        "from": "0x4d05fce7228f04183a097db7f12a29c902655297",
        "to": "0x4dc34690e9b1fe0bfcdbc05d94683012e744e095",
        "gas": "0x1167e",
        "value": "0x0",
        "input": "0xa9059cbb00000000000000000000000041c45ac089a3ef00ca2636809b376f2b7ac01d7b000000000000000000000000000000000000000000000003e55fb33e98e3fa73",
        "nonce": "0x26",
        "chainId": "0x14a34"
      },
      "additionalContracts": [],
      "isFixedGasLimit": false
    },
    {
      "hash": "0xe9725a28c19793a94557e3b9c7b8cb3320ea4a6d37650f63e918499718683480",
      "transactionType": "CALL",
      "contractName": "ERC20Mock",
      "contractAddress": "0x4dc34690e9b1fe0bfcdbc05d94683012e744e095",
      "function": "transfer(address,uint256)",
      "arguments": [
        "0x2624984d0C9bE87Ca47Eb432bFaf97c993aA22F4",
        "430831392696904888451"
      ],
      "transaction": {
        "from": "0x4d05fce7228f04183a097db7f12a29c902655297",
        "to": "0x4dc34690e9b1fe0bfcdbc05d94683012e744e095",
        "gas": "0x1168e",
        "value": "0x0",
        "input": "0xa9059cbb0000000000000000000000002624984d0c9be87ca47eb432bfaf97c993aa22f40000000000000000000000000000000000000000000000175afc9503e9d6b083",
        "nonce": "0x27",
        "chainId": "0x14a34"
      },
      "additionalContracts": [],
      "isFixedGasLimit": false
    },
    {
      "hash": "0x77ecad3719e1595168ac7b3f7d86f71436fb1526adb3ac47244a96f912eee980",
      "transactionType": "CALL",
      "contractName": "ERC20Mock",
      "contractAddress": "0x4dc34690e9b1fe0bfcdbc05d94683012e744e095",
      "function": "transfer(address,uint256)",
      "arguments": [
        "0x8DEe0E32dbB5D6Aef2a0269A60c158a546fcD6db",
        "1315759618181975849"
      ],
      "transaction": {
        "from": "0x4d05fce7228f04183a097db7f12a29c902655297",
        "to": "0x4dc34690e9b1fe0bfcdbc05d94683012e744e095",
        "gas": "0x1167e",
        "value": "0x0",
        "input": "0xa9059cbb0000000000000000000000008dee0e32dbb5d6aef2a0269a60c158a546fcd6db00000000000000000000000000000000000000000000000012428466cb8a4f29",
        "nonce": "0x28",
        "chainId": "0x14a34"
      },
      "additionalContracts": [],
      "isFixedGasLimit": false
    },
    {
      "hash": "0x4f09bbe5f4011ad6b12b5bc6b7393641b94590b36fd479a9ed5bf75dbd03df9a",
      "transactionType": "CALL",
      "contractName": "ERC20Mock",
      "contractAddress": "0x4dc34690e9b1fe0bfcdbc05d94683012e744e095",
      "function": "transfer(address,uint256)",
      "arguments": [
        "0xAe4A80Dd274cDaA164D3f1b1238Ed3053Cd9D55f",
        "421467594504073956136"
      ],
      "transaction": {
        "from": "0x4d05fce7228f04183a097db7f12a29c902655297",
        "to": "0x4dc34690e9b1fe0bfcdbc05d94683012e744e095",
        "gas": "0x1168e",
        "value": "0x0",
        "input": "0xa9059cbb000000000000000000000000ae4a80dd274cdaa164d3f1b1238ed3053cd9d55f000000000000000000000000000000000000000000000016d909b02ba1b4cb28",
        "nonce": "0x29",
        "chainId": "0x14a34"
      },
      "additionalContracts": [],
      "isFixedGasLimit": false
    },
    {
      "hash": "0xc75279073bfee985a29820c0906154ce0f8ee33e349950be1a0f1b56cddd4255",
      "transactionType": "CALL",
      "contractName": "ERC20Mock",
      "contractAddress": "0x4dc34690e9b1fe0bfcdbc05d94683012e744e095",
      "function": "transfer(address,uint256)",
      "arguments": [
        "0xa671AEAa6F278d7B05C45Dae2c86160B9AfeDfAB",
        "175928420971472258708"
      ],
      "transaction": {
        "from": "0x4d05fce7228f04183a097db7f12a29c902655297",
        "to": "0x4dc34690e9b1fe0bfcdbc05d94683012e744e095",
        "gas": "0x1168e",
        "value": "0x0",
        "input": "0xa9059cbb000000000000000000000000a671aeaa6f278d7b05c45dae2c86160b9afedfab000000000000000000000000000000000000000000000009897f4ec3cbfc8694",
        "nonce": "0x2a",
        "chainId": "0x14a34"
      },
      "additionalContracts": [],
      "isFixedGasLimit": false
    },
    {
      "hash": "0x804d661f6132c694d7686fde0f7af7cae1769351ce5e70a7f93b82a07316cea7",
      "transactionType": "CALL",
      "contractName": "ERC20Mock",
      "contractAddress": "0x4dc34690e9b1fe0bfcdbc05d94683012e744e095",
      "function": "transfer(address,uint256)",
      "arguments": [
        "0xe455418A4133Ba37a57B3b5efE4A3CD159d08fa0",
        "323439042642750236860"
      ],
      "transaction": {
        "from": "0x4d05fce7228f04183a097db7f12a29c902655297",
        "to": "0x4dc34690e9b1fe0bfcdbc05d94683012e744e095",
        "gas": "0x1168e",
        "value": "0x0",
        "input": "0xa9059cbb000000000000000000000000e455418a4133ba37a57b3b5efe4a3cd159d08fa0000000000000000000000000000000000000000000000011889e4fa14d8c68bc",
        "nonce": "0x2b",
        "chainId": "0x14a34"
      },
      "additionalContracts": [],
      "isFixedGasLimit": false
    },
    {
      "hash": "0xc548d74e25b130fbc481dd0662c8b93c48ccface2eff7f6c729601764167e960",
      "transactionType": "CREATE",
      "contractName": "TokenDistributor",
      "contractAddress": "0xa0d2123c8d12add7c29c132f2c93060f2efd2699",
      "function": null,
      "arguments": null,
      "transaction": {
        "from": "0x4d05fce7228f04183a097db7f12a29c902655297",
        "gas": "0xae523",
        "value": "0x0",
        "input": "0x60a060405234801561000f575f80fd5b5060015f553360805260805161089261003c5f395f818160810152818160d0015261018c01526108925ff3fe60806040526004361061002b575f3560e01c806351cff8d914610036578063afc536df14610057575f80fd5b3661003257005b5f80fd5b348015610041575f80fd5b506100556100503660046105b7565b610076565b005b348015610062575f80fd5b50610055610071366004610621565b610265565b336001600160a01b037f000000000000000000000000000000000000000000000000000000000000000016146100bf5760405163d238ed5960e01b815260040160405180910390fd5b6001600160a01b038116610166575f7f00000000000000000000000000000000000000000000000000000000000000006001600160a01b031647614e20906040515f60405180830381858888f193505050503d805f811461013b576040519150601f19603f3d011682016040523d82523d5f602084013e610140565b606091505b505090508061016257604051631fa55c0760e11b815260040160405180910390fd5b5050565b6040516370a0823160e01b81523060048201526001600160a01b0382169063a9059cbb907f00000000000000000000000000000000000000000000000000000000000000009083906370a0823190602401602060405180830381865afa1580156101d2573d5f803e3d5ffd5b505050506040513d601f19601f820116820180604052508101906101f69190610717565b6040516001600160e01b031960e085901b1681526001600160a01b03909216600483015260248201526044016020604051808303815f875af115801561023e573d5f803e3d5ffd5b505050506040513d601f19601f82011682018060405250810190610162919061072e565b50565b61026d61039e565b8787805f5b81811015610320575f61028682600161074d565b90505b82811015610317578484828181106102a3576102a3610772565b90506020020160208101906102b891906105b7565b6001600160a01b03168585848181106102d3576102d3610772565b90506020020160208101906102e891906105b7565b6001600160a01b03160361030f57604051632f119e0960e11b815260040160405180910390fd5b600101610289565b50600101610272565b5061032e8c8c8c8c8c6103c6565b8b6001600160a01b0316336001600160a01b03167f6de2112445181962af2f36e9b485ecee86bf100455bbb98841b25f824264834c8d8d8d8d8d8d8d8d60405161037f9897969594939291906107cd565b60405180910390a350505061039360015f55565b505050505050505050565b60025f54036103c057604051633ee5aeb560e01b815260040160405180910390fd5b60025f55565b828181146103e75760405163b68600c760e01b815260040160405180910390fd5b5f5b818110156104ca575f86868381811061040457610404610772565b905060200201602081019061041991906105b7565b6001600160a01b0316036104405760405163290802d360e11b815260040160405180910390fd5b83838281811061045257610452610772565b905060200201355f0361047857604051631161496d60e01b815260040160405180910390fd5b6104c2873388888581811061048f5761048f610772565b90506020020160208101906104a491906105b7565b8787868181106104b6576104b6610772565b905060200201356104d3565b6001016103e9565b50505050505050565b604080516001600160a01b0385811660248301528416604482015260648082018490528251808303909101815260849091019091526020810180516001600160e01b03166323b872dd60e01b17905261052d908590610533565b50505050565b5f8060205f8451602086015f885af180610552576040513d5f823e3d81fd5b50505f513d91508115610569578060011415610576565b6001600160a01b0384163b155b1561052d57604051635274afe760e01b81526001600160a01b038516600482015260240160405180910390fd5b6001600160a01b0381168114610262575f80fd5b5f602082840312156105c7575f80fd5b81356105d2816105a3565b9392505050565b5f8083601f8401126105e9575f80fd5b50813567ffffffffffffffff811115610600575f80fd5b6020830191508360208260051b850101111561061a575f80fd5b9250929050565b5f805f805f805f805f60a08a8c031215610639575f80fd5b8935610644816105a3565b985060208a013567ffffffffffffffff80821115610660575f80fd5b61066c8d838e016105d9565b909a50985060408c0135915080821115610684575f80fd5b6106908d838e016105d9565b909850965060608c01359150808211156106a8575f80fd5b6106b48d838e016105d9565b909650945060808c01359150808211156106cc575f80fd5b818c0191508c601f8301126106df575f80fd5b8135818111156106ed575f80fd5b8d60208285010111156106fe575f80fd5b6020830194508093505050509295985092959850929598565b5f60208284031215610727575f80fd5b5051919050565b5f6020828403121561073e575f80fd5b815180151581146105d2575f80fd5b8082018082111561076c57634e487b7160e01b5f52601160045260245ffd5b92915050565b634e487b7160e01b5f52603260045260245ffd5b8183525f60208085019450825f5b858110156107c25781356107a7816105a3565b6001600160a01b031687529582019590820190600101610794565b509495945050505050565b608081525f6107e0608083018a8c610786565b8281036020848101919091528882526001600160fb1b03891115610802575f80fd5b8860051b808b83850137919091018381038201604085015290610828818301888a610786565b915083820360608501528482528486828401375f828601820152601f909401601f191601909201999850505050505050505056fea2646970667358221220e2e3e1172ff56d9a39dc9320779b4b14bb670157f288ce29e1df5ed6a55399e064736f6c63430008180033",
        "nonce": "0x2c",
        "chainId": "0x14a34"
      },
      "additionalContracts": [],
      "isFixedGasLimit": false
    },
    {
      "hash": "0x63b269d0d285993c6f8f0c411173a25d0ba9a7826b604d444c9d5b2ef2cb1cbf",
      "transactionType": "CREATE",
      "contractName": "SecondaryERC20Mock",
      "contractAddress": "0xdf099971129c6788ab10199df9fe9b53469dd51c",
      "function": null,
      "arguments": [
        "SecondaryERC20Mock",
        "SECMERC",
        "1000000000000000000000000",
        "1000000000000000000000"
      ],
      "transaction": {
        "from": "0x4d05fce7228f04183a097db7f12a29c902655297",
        "gas": "0xcedf3",
        "value": "0x0",
        "input": "0x608060405234801562000010575f80fd5b5060405162000d0738038062000d078339810160408190526200003391620002a4565b83836003620000438382620003a3565b506004620000528282620003a3565b5050506200006733836200007460201b60201c565b6005555062000495915050565b6001600160a01b038216620000a35760405163ec442f0560e01b81525f60048201526024015b60405180910390fd5b620000b05f8383620000b4565b5050565b6001600160a01b038316620000e2578060025f828254620000d691906200046f565b90915550620001549050565b6001600160a01b0383165f9081526020819052604090205481811015620001365760405163391434e360e21b81526001600160a01b038516600482015260248101829052604481018390526064016200009a565b6001600160a01b0384165f9081526020819052604090209082900390555b6001600160a01b038216620001725760028054829003905562000190565b6001600160a01b0382165f9081526020819052604090208054820190555b816001600160a01b0316836001600160a01b03167fddf252ad1be2c89b69c2b068fc378daa952ba7f163c4a11628f55a4df523b3ef83604051620001d691815260200190565b60405180910390a3505050565b634e487b7160e01b5f52604160045260245ffd5b5f82601f83011262000207575f80fd5b81516001600160401b0380821115620002245762000224620001e3565b604051601f8301601f19908116603f011681019082821181831017156200024f576200024f620001e3565b81604052838152602092508660208588010111156200026c575f80fd5b5f91505b838210156200028f578582018301518183018401529082019062000270565b5f602085830101528094505050505092915050565b5f805f8060808587031215620002b8575f80fd5b84516001600160401b0380821115620002cf575f80fd5b620002dd88838901620001f7565b95506020870151915080821115620002f3575f80fd5b506200030287828801620001f7565b604087015160609097015195989097509350505050565b600181811c908216806200032e57607f821691505b6020821081036200034d57634e487b7160e01b5f52602260045260245ffd5b50919050565b601f8211156200039e57805f5260205f20601f840160051c810160208510156200037a5750805b601f840160051c820191505b818110156200039b575f815560010162000386565b50505b505050565b81516001600160401b03811115620003bf57620003bf620001e3565b620003d781620003d0845462000319565b8462000353565b602080601f8311600181146200040d575f8415620003f55750858301515b5f19600386901b1c1916600185901b17855562000467565b5f85815260208120601f198616915b828110156200043d578886015182559484019460019091019084016200041c565b50858210156200045b57878501515f19600388901b60f8161c191681555b505060018460011b0185555b505050505050565b808201808211156200048f57634e487b7160e01b5f52601160045260245ffd5b92915050565b61086480620004a35f395ff3fe608060405234801561000f575f80fd5b50600436106100cb575f3560e01c806370a08231116100885780639dc29fac116100635780639dc29fac14610192578063a9059cbb146101a5578063b86d1d63146101b8578063dd62ed3e146101cb575f80fd5b806370a082311461015957806395d89b41146101815780639c28143014610189575f80fd5b806306fdde03146100cf578063095ea7b3146100ed57806318160ddd1461011057806323b872dd14610122578063313ce5671461013557806340c10f1914610144575b5f80fd5b6100d7610203565b6040516100e491906106be565b60405180910390f35b6101006100fb366004610725565b610293565b60405190151581526020016100e4565b6002545b6040519081526020016100e4565b61010061013036600461074d565b6102ac565b604051601281526020016100e4565b610157610152366004610725565b6102cf565b005b610114610167366004610786565b6001600160a01b03165f9081526020819052604090205490565b6100d76102dd565b61011460055481565b6101576101a0366004610725565b6102ec565b6101006101b3366004610725565b6102f6565b6101576101c6366004610786565b610303565b6101146101d93660046107a6565b6001600160a01b039182165f90815260016020908152604080832093909416825291909152205490565b606060038054610212906107d7565b80601f016020809104026020016040519081016040528092919081815260200182805461023e906107d7565b80156102895780601f1061026057610100808354040283529160200191610289565b820191905f5260205f20905b81548152906001019060200180831161026c57829003601f168201915b5050505050905090565b5f336102a0818585610374565b60019150505b92915050565b5f336102b9858285610386565b6102c4858585610401565b506001949350505050565b6102d9828261045e565b5050565b606060048054610212906107d7565b6102d98282610492565b5f336102a0818585610401565b5f600554116103655760405162461bcd60e51b8152602060048201526024808201527f46617563657420616d6f756e74206d75737420626520677265617465722074686044820152630616e20360e41b60648201526084015b60405180910390fd5b6103718160055461045e565b50565b61038183838360016104c6565b505050565b6001600160a01b038381165f908152600160209081526040808320938616835292905220545f1981146103fb57818110156103ed57604051637dc7a0d960e11b81526001600160a01b0384166004820152602481018290526044810183905260640161035c565b6103fb84848484035f6104c6565b50505050565b6001600160a01b03831661042a57604051634b637e8f60e11b81525f600482015260240161035c565b6001600160a01b0382166104535760405163ec442f0560e01b81525f600482015260240161035c565b610381838383610598565b6001600160a01b0382166104875760405163ec442f0560e01b81525f600482015260240161035c565b6102d95f8383610598565b6001600160a01b0382166104bb57604051634b637e8f60e11b81525f600482015260240161035c565b6102d9825f83610598565b6001600160a01b0384166104ef5760405163e602df0560e01b81525f600482015260240161035c565b6001600160a01b03831661051857604051634a1406b160e11b81525f600482015260240161035c565b6001600160a01b038085165f90815260016020908152604080832093871683529290522082905580156103fb57826001600160a01b0316846001600160a01b03167f8c5be1e5ebec7d5bd14f71427d1e84f3dd0314c0f7b2291e5b200ac8c7c3b9258460405161058a91815260200190565b60405180910390a350505050565b6001600160a01b0383166105c2578060025f8282546105b7919061080f565b909155506106329050565b6001600160a01b0383165f90815260208190526040902054818110156106145760405163391434e360e21b81526001600160a01b0385166004820152602481018290526044810183905260640161035c565b6001600160a01b0384165f9081526020819052604090209082900390555b6001600160a01b03821661064e5760028054829003905561066c565b6001600160a01b0382165f9081526020819052604090208054820190555b816001600160a01b0316836001600160a01b03167fddf252ad1be2c89b69c2b068fc378daa952ba7f163c4a11628f55a4df523b3ef836040516106b191815260200190565b60405180910390a3505050565b5f602080835283518060208501525f5b818110156106ea578581018301518582016040015282016106ce565b505f604082860101526040601f19601f8301168501019250505092915050565b80356001600160a01b0381168114610720575f80fd5b919050565b5f8060408385031215610736575f80fd5b61073f8361070a565b946020939093013593505050565b5f805f6060848603121561075f575f80fd5b6107688461070a565b92506107766020850161070a565b9150604084013590509250925092565b5f60208284031215610796575f80fd5b61079f8261070a565b9392505050565b5f80604083850312156107b7575f80fd5b6107c08361070a565b91506107ce6020840161070a565b90509250929050565b600181811c908216806107eb57607f821691505b60208210810361080957634e487b7160e01b5f52602260045260245ffd5b50919050565b808201808211156102a657634e487b7160e01b5f52601160045260245ffdfea2646970667358221220a6a89fd6e7087b02793529610d7401ef67ca583ff48a99be3a0f09601b50f2f864736f6c63430008180033000000000000000000000000000000000000000000000000000000000000008000000000000000000000000000000000000000000000000000000000000000c000000000000000000000000000000000000000000000d3c21bcecceda100000000000000000000000000000000000000000000000000003635c9adc5dea0000000000000000000000000000000000000000000000000000000000000000000125365636f6e6461727945524332304d6f636b000000000000000000000000000000000000000000000000000000000000000000000000000000000000000000075345434d45524300000000000000000000000000000000000000000000000000",
        "nonce": "0x2d",
        "chainId": "0x14a34"
      },
      "additionalContracts": [],
      "isFixedGasLimit": false
    }
  ],
  "receipts": [
    {
      "status": "0x1",
      "cumulativeGasUsed": "0x101b67",
      "logs": [
        {
          "address": "0x4dc34690e9b1fe0bfcdbc05d94683012e744e095",
          "topics": [
            "0xddf252ad1be2c89b69c2b068fc378daa952ba7f163c4a11628f55a4df523b3ef",
            "0x0000000000000000000000000000000000000000000000000000000000000000",
            "0x0000000000000000000000004d05fce7228f04183a097db7f12a29c902655297"
          ],
          "data": "0x00000000000000000000000000000000000000000000d3c21bcecceda1000000",
          "blockHash": "0xf7746f552d885116e30c24ad60a4c80d58951c37eabda96bf2b04549a904ff70",
          "blockNumber": "0x11a151b",
          "transactionHash": "0x12d8d615eba6ff313ba28f3293246838baaa67805f59ad82fda987f2afbe5686",
          "transactionIndex": "0x5",
          "logIndex": "0x4",
          "removed": false
        }
      ],
      "logsBloom": "0x00000000000000000000000000000000000040000000000000000000000000000000000000000000000000000000000000000000000000000000000000000000000000000000000000000008000000020000000000000000000000000000000000000000024000000000000000000800000000000000000000000010000000000000000000000000000000000000000000000000000000000000000000800000000000001000000000000000000000000000000000000000000000000000000000000002000000000000000000000000000000000000000000000000000020000000000000000000000000000000000000000200000000000000000000000000",
      "type": "0x0",
      "transactionHash": "0x12d8d615eba6ff313ba28f3293246838baaa67805f59ad82fda987f2afbe5686",
      "transactionIndex": "0x5",
      "blockHash": "0xf7746f552d885116e30c24ad60a4c80d58951c37eabda96bf2b04549a904ff70",
      "blockNumber": "0x11a151b",
      "gasUsed": "0x9f18e",
      "effectiveGasPrice": "0xf4352",
      "from": "0x4d05fce7228f04183a097db7f12a29c902655297",
      "to": null,
      "contractAddress": "0x4dc34690e9b1fe0bfcdbc05d94683012e744e095",
      "l1BaseFeeScalar": "0x44d",
      "l1BlobBaseFee": "0x1",
      "l1BlobBaseFeeScalar": "0xa118b",
      "l1Fee": "0x2945088930",
      "l1GasPrice": "0x123702ec6",
      "l1GasUsed": "0x809d"
    },
    {
      "status": "0x1",
      "cumulativeGasUsed": "0x12ef25",
      "logs": [
        {
          "address": "0x4dc34690e9b1fe0bfcdbc05d94683012e744e095",
          "topics": [
            "0xddf252ad1be2c89b69c2b068fc378daa952ba7f163c4a11628f55a4df523b3ef",
            "0x0000000000000000000000004d05fce7228f04183a097db7f12a29c902655297",
            "0x000000000000000000000000a433f323541cf82f97395076b5f83a7a06f1646c"
          ],
          "data": "0x00000000000000000000000000000000000000000000001287a257db188d4222",
          "blockHash": "0xf7746f552d885116e30c24ad60a4c80d58951c37eabda96bf2b04549a904ff70",
          "blockNumber": "0x11a151b",
          "transactionHash": "0x4626a8cf944b65e80e26676701917e88af4c6f85165c594f19a5500688c3bdd8",
          "transactionIndex": "0x7",
          "logIndex": "0x9",
          "removed": false
        }
      ],
      "logsBloom": "0x00000000000000000000000000000000000040000000000000000000000000000000000000000000000000000000000000800000000000000000000000000000000000000000000000000008000000020000000000000000000000000000000000000000004000000000000000000000000000000000000000000010000000000000000000000000000000000000000000000000000000000400000000800000000000001000000000000000000000000000000001000000000000000000000000000002000000000000000000000000000000000000000000000000000000000000000000000000000000000000000000000200000000000000000000000000",
      "type": "0x0",
      "transactionHash": "0x4626a8cf944b65e80e26676701917e88af4c6f85165c594f19a5500688c3bdd8",
      "transactionIndex": "0x7",
      "blockHash": "0xf7746f552d885116e30c24ad60a4c80d58951c37eabda96bf2b04549a904ff70",
      "blockNumber": "0x11a151b",
      "gasUsed": "0xc9ac",
      "effectiveGasPrice": "0xf4352",
      "from": "0x4d05fce7228f04183a097db7f12a29c902655297",
      "to": "0x4dc34690e9b1fe0bfcdbc05d94683012e744e095",
      "contractAddress": null,
      "l1BaseFeeScalar": "0x44d",
      "l1BlobBaseFee": "0x1",
      "l1BlobBaseFeeScalar": "0xa118b",
      "l1Fee": "0x20165c692",
      "l1GasPrice": "0x123702ec6",
      "l1GasUsed": "0x640"
    },
    {
      "status": "0x1",
      "cumulativeGasUsed": "0x13b8c5",
      "logs": [
        {
          "address": "0x4dc34690e9b1fe0bfcdbc05d94683012e744e095",
          "topics": [
            "0xddf252ad1be2c89b69c2b068fc378daa952ba7f163c4a11628f55a4df523b3ef",
            "0x0000000000000000000000004d05fce7228f04183a097db7f12a29c902655297",
            "0x000000000000000000000000f80999dcaf1cd7ee68f8b72c4e9451581a92bb56"
          ],
          "data": "0x00000000000000000000000000000000000000000000000d98b8e8d77e41f100",
          "blockHash": "0xf7746f552d885116e30c24ad60a4c80d58951c37eabda96bf2b04549a904ff70",
          "blockNumber": "0x11a151b",
          "transactionHash": "0x99ae0ba8b79b76256cb5a2a730f131ef992e2546c221bfa8d979bac02638f8c8",
          "transactionIndex": "0x8",
          "logIndex": "0xa",
          "removed": false
        }
      ],
      "logsBloom": "0x00000000000000000000000000000000000040000000000000000000000000000000000000000000000000000000000000000000000000000000000000000000000000000000000000000008000000020000100000000000000000000000000000000000004000000000002000000000000000000000000000000010000000000000000000000000000000000000000000000000000000000000000000800000000000001002000000000000000000000000000000000000000000000000000000000002000000000000000000000000000000000000000000000000000000000000000000000000000000000000000000000200000000000000000000000000",
      "type": "0x0",
      "transactionHash": "0x99ae0ba8b79b76256cb5a2a730f131ef992e2546c221bfa8d979bac02638f8c8",
      "transactionIndex": "0x8",
      "blockHash": "0xf7746f552d885116e30c24ad60a4c80d58951c37eabda96bf2b04549a904ff70",
      "blockNumber": "0x11a151b",
      "gasUsed": "0xc9a0",
      "effectiveGasPrice": "0xf4352",
      "from": "0x4d05fce7228f04183a097db7f12a29c902655297",
      "to": "0x4dc34690e9b1fe0bfcdbc05d94683012e744e095",
      "contractAddress": null,
      "l1BaseFeeScalar": "0x44d",
      "l1BlobBaseFee": "0x1",
      "l1BlobBaseFeeScalar": "0xa118b",
      "l1Fee": "0x20165c692",
      "l1GasPrice": "0x123702ec6",
      "l1GasUsed": "0x640"
    },
    {
      "status": "0x1",
      "cumulativeGasUsed": "0x148271",
      "logs": [
        {
          "address": "0x4dc34690e9b1fe0bfcdbc05d94683012e744e095",
          "topics": [
            "0xddf252ad1be2c89b69c2b068fc378daa952ba7f163c4a11628f55a4df523b3ef",
            "0x0000000000000000000000004d05fce7228f04183a097db7f12a29c902655297",
            "0x000000000000000000000000217dc6a3130a6ab45942219dc4258d680ba5e160"
          ],
          "data": "0x00000000000000000000000000000000000000000000001af6463fabed8553f9",
          "blockHash": "0xf7746f552d885116e30c24ad60a4c80d58951c37eabda96bf2b04549a904ff70",
          "blockNumber": "0x11a151b",
          "transactionHash": "0x2e507573eb6078d180fe70f25017b950855333d8259a582fc36bd47f2567cc6a",
          "transactionIndex": "0x9",
          "logIndex": "0xb",
          "removed": false
        }
      ],
      "logsBloom": "0x00000000000000000000000000000000000040000000000000000000000000000000000000000000000000000000000000000000000000000000000000000000000000000000000000000008000000020001000000000000000000000000000000000000004000000000000000000010000000000000000000000010000000000000000000000000000000000000000000000000000000000000000000800000000000001000000000000000000000000000000000000000000000000000000000000002000000000000000000000000000000000400000000000000000000000000000000000000000000000000000000000200000000000000000000000000",
      "type": "0x0",
      "transactionHash": "0x2e507573eb6078d180fe70f25017b950855333d8259a582fc36bd47f2567cc6a",
      "transactionIndex": "0x9",
      "blockHash": "0xf7746f552d885116e30c24ad60a4c80d58951c37eabda96bf2b04549a904ff70",
      "blockNumber": "0x11a151b",
      "gasUsed": "0xc9ac",
      "effectiveGasPrice": "0xf4352",
      "from": "0x4d05fce7228f04183a097db7f12a29c902655297",
      "to": "0x4dc34690e9b1fe0bfcdbc05d94683012e744e095",
      "contractAddress": null,
      "l1BaseFeeScalar": "0x44d",
      "l1BlobBaseFee": "0x1",
      "l1BlobBaseFeeScalar": "0xa118b",
      "l1Fee": "0x20165c692",
      "l1GasPrice": "0x123702ec6",
      "l1GasUsed": "0x640"
    },
    {
      "status": "0x1",
      "cumulativeGasUsed": "0x154c1d",
      "logs": [
        {
          "address": "0x4dc34690e9b1fe0bfcdbc05d94683012e744e095",
          "topics": [
            "0xddf252ad1be2c89b69c2b068fc378daa952ba7f163c4a11628f55a4df523b3ef",
            "0x0000000000000000000000004d05fce7228f04183a097db7f12a29c902655297",
            "0x000000000000000000000000c9c673b3b2857c3dc44da8dbeb4fdad7908edcd3"
          ],
          "data": "0x00000000000000000000000000000000000000000000000a9d59fbee2a77807c",
          "blockHash": "0xf7746f552d885116e30c24ad60a4c80d58951c37eabda96bf2b04549a904ff70",
          "blockNumber": "0x11a151b",
          "transactionHash": "0x36fe516185f945dc3533c3e6331e244ce760437d2ba555bcb50dc3df3666c4ec",
          "transactionIndex": "0xa",
          "logIndex": "0xc",
          "removed": false
        }
      ],
      "logsBloom": "0x00000000000000000000000000000000000040000000000000000000000000000000000000000000000000000200000000000000000000000000000000000000000000000000000000000008000000020000020000000000000000000000000000000000004000000000000000000000000000000000000000000010000000000000000000000000000000000000000000000000000000000000000000800000000000001000000000000000000000000000000000000000000000000000008000000002000000000000000000000000000000000000000000000000000000000000000000000000000000000000000000000200000000000000000000000000",
      "type": "0x0",
      "transactionHash": "0x36fe516185f945dc3533c3e6331e244ce760437d2ba555bcb50dc3df3666c4ec",
      "transactionIndex": "0xa",
      "blockHash": "0xf7746f552d885116e30c24ad60a4c80d58951c37eabda96bf2b04549a904ff70",
      "blockNumber": "0x11a151b",
      "gasUsed": "0xc9ac",
      "effectiveGasPrice": "0xf4352",
      "from": "0x4d05fce7228f04183a097db7f12a29c902655297",
      "to": "0x4dc34690e9b1fe0bfcdbc05d94683012e744e095",
      "contractAddress": null,
      "l1BaseFeeScalar": "0x44d",
      "l1BlobBaseFee": "0x1",
      "l1BlobBaseFeeScalar": "0xa118b",
      "l1Fee": "0x20165c692",
      "l1GasPrice": "0x123702ec6",
      "l1GasUsed": "0x640"
    },
    {
      "status": "0x1",
      "cumulativeGasUsed": "0x1615c9",
      "logs": [
        {
          "address": "0x4dc34690e9b1fe0bfcdbc05d94683012e744e095",
          "topics": [
            "0xddf252ad1be2c89b69c2b068fc378daa952ba7f163c4a11628f55a4df523b3ef",
            "0x0000000000000000000000004d05fce7228f04183a097db7f12a29c902655297",
            "0x000000000000000000000000ec9261b092bd9cb33687c6ffeeffdd90aa9e27ef"
          ],
          "data": "0x00000000000000000000000000000000000000000000001a6786e86cf2327a3f",
          "blockHash": "0xf7746f552d885116e30c24ad60a4c80d58951c37eabda96bf2b04549a904ff70",
          "blockNumber": "0x11a151b",
          "transactionHash": "0x20f04c034443b975d48204d11943905bbbab87c628f5b43834ff98474cd165ad",
          "transactionIndex": "0xb",
          "logIndex": "0xd",
          "removed": false
        }
      ],
      "logsBloom": "0x00000000100000000000000000000000000040000000000000000000000000000000000000000000000000000000000000000000000000000000000000000000000000000000000000000008000000020000000000000000000000000000000000000000004000000000000000040000000000000000000000000010000000000000000000000000000000000000000000000000000000000000000000820000000000001000000000000000000000000000000000000000000000000000000000000002000000000000000000000000000000000000000000000000000000000000000000000000000000000000000000000200000000000000000000000000",
      "type": "0x0",
      "transactionHash": "0x20f04c034443b975d48204d11943905bbbab87c628f5b43834ff98474cd165ad",
      "transactionIndex": "0xb",
      "blockHash": "0xf7746f552d885116e30c24ad60a4c80d58951c37eabda96bf2b04549a904ff70",
      "blockNumber": "0x11a151b",
      "gasUsed": "0xc9ac",
      "effectiveGasPrice": "0xf4352",
      "from": "0x4d05fce7228f04183a097db7f12a29c902655297",
      "to": "0x4dc34690e9b1fe0bfcdbc05d94683012e744e095",
      "contractAddress": null,
      "l1BaseFeeScalar": "0x44d",
      "l1BlobBaseFee": "0x1",
      "l1BlobBaseFeeScalar": "0xa118b",
      "l1Fee": "0x20165c692",
      "l1GasPrice": "0x123702ec6",
      "l1GasUsed": "0x640"
    },
    {
      "status": "0x1",
      "cumulativeGasUsed": "0x16df75",
      "logs": [
        {
          "address": "0x4dc34690e9b1fe0bfcdbc05d94683012e744e095",
          "topics": [
            "0xddf252ad1be2c89b69c2b068fc378daa952ba7f163c4a11628f55a4df523b3ef",
            "0x0000000000000000000000004d05fce7228f04183a097db7f12a29c902655297",
            "0x000000000000000000000000f50c5edc171ad5c5cccac6f11adb48db2683c530"
          ],
          "data": "0x00000000000000000000000000000000000000000000000af0da56b5044a22a4",
          "blockHash": "0xf7746f552d885116e30c24ad60a4c80d58951c37eabda96bf2b04549a904ff70",
          "blockNumber": "0x11a151b",
          "transactionHash": "0x11433c6bf0cd488aa7acd17bedc3c19887c897866bc339687bf2dfb086e45a14",
          "transactionIndex": "0xc",
          "logIndex": "0xe",
          "removed": false
        }
      ],
      "logsBloom": "0x00000000000000000000000000000000000040000000000000000000800000000000000000000000000000000000000000000000000000000000000000000000000000000000000000000008000000020000000000000000000000000000000000000000004000000000000000000000000000000000000000000010000000000000000000000000000000000000000000000000000000000000000000800000000000001000000000000000000000000000000000000000000000000000000000000002000000000000000000000000000000000040000000000000000000000000000000000000000000000000000000000200080000000000000000000000",
      "type": "0x0",
      "transactionHash": "0x11433c6bf0cd488aa7acd17bedc3c19887c897866bc339687bf2dfb086e45a14",
      "transactionIndex": "0xc",
      "blockHash": "0xf7746f552d885116e30c24ad60a4c80d58951c37eabda96bf2b04549a904ff70",
      "blockNumber": "0x11a151b",
      "gasUsed": "0xc9ac",
      "effectiveGasPrice": "0xf4352",
      "from": "0x4d05fce7228f04183a097db7f12a29c902655297",
      "to": "0x4dc34690e9b1fe0bfcdbc05d94683012e744e095",
      "contractAddress": null,
      "l1BaseFeeScalar": "0x44d",
      "l1BlobBaseFee": "0x1",
      "l1BlobBaseFeeScalar": "0xa118b",
      "l1Fee": "0x20165c692",
      "l1GasPrice": "0x123702ec6",
      "l1GasUsed": "0x640"
    },
    {
      "status": "0x1",
      "cumulativeGasUsed": "0x17a921",
      "logs": [
        {
          "address": "0x4dc34690e9b1fe0bfcdbc05d94683012e744e095",
          "topics": [
            "0xddf252ad1be2c89b69c2b068fc378daa952ba7f163c4a11628f55a4df523b3ef",
            "0x0000000000000000000000004d05fce7228f04183a097db7f12a29c902655297",
            "0x0000000000000000000000001cf85de2e11b6574584489a48d2a4020eef60e67"
          ],
          "data": "0x0000000000000000000000000000000000000000000000041f34653b438b1b2a",
          "blockHash": "0xf7746f552d885116e30c24ad60a4c80d58951c37eabda96bf2b04549a904ff70",
          "blockNumber": "0x11a151b",
          "transactionHash": "0xe6f36c786aa0c1ab9e1b781771020e051eac409698902506f06bccbbc29a3fa3",
          "transactionIndex": "0xd",
          "logIndex": "0xf",
          "removed": false
        }
      ],
      "logsBloom": "0x00000000000000000000000000000000000040000000000000000000000000000000000000000000000000000000000000000000000000000000000010000000000000000000000000000008000000020000000000000000000000000000000000000000004000000000000000000000000000000000000000000010000000000000000000000000000000000040000000000000000000000000000000800000000000001000000000000000000000000000000000000000000000000000000000000002000000000000040000000000000000000000000000000000000000000000000000000000000000000000000000000200000000000000000000000000",
      "type": "0x0",
      "transactionHash": "0xe6f36c786aa0c1ab9e1b781771020e051eac409698902506f06bccbbc29a3fa3",
      "transactionIndex": "0xd",
      "blockHash": "0xf7746f552d885116e30c24ad60a4c80d58951c37eabda96bf2b04549a904ff70",
      "blockNumber": "0x11a151b",
      "gasUsed": "0xc9ac",
      "effectiveGasPrice": "0xf4352",
      "from": "0x4d05fce7228f04183a097db7f12a29c902655297",
      "to": "0x4dc34690e9b1fe0bfcdbc05d94683012e744e095",
      "contractAddress": null,
      "l1BaseFeeScalar": "0x44d",
      "l1BlobBaseFee": "0x1",
      "l1BlobBaseFeeScalar": "0xa118b",
      "l1Fee": "0x20165c692",
      "l1GasPrice": "0x123702ec6",
      "l1GasUsed": "0x640"
    },
    {
      "status": "0x1",
      "cumulativeGasUsed": "0x1872b5",
      "logs": [
        {
          "address": "0x4dc34690e9b1fe0bfcdbc05d94683012e744e095",
          "topics": [
            "0xddf252ad1be2c89b69c2b068fc378daa952ba7f163c4a11628f55a4df523b3ef",
            "0x0000000000000000000000004d05fce7228f04183a097db7f12a29c902655297",
            "0x00000000000000000000000058a772a130b03f3cc065165f936d14e655a07bfd"
          ],
          "data": "0x00000000000000000000000000000000000000000000000000ef4bded5e249b5",
          "blockHash": "0xf7746f552d885116e30c24ad60a4c80d58951c37eabda96bf2b04549a904ff70",
          "blockNumber": "0x11a151b",
          "transactionHash": "0x9d29f871348c318ad7e3192b324febc6f2994750efa33ae87a8652f30722f8c3",
          "transactionIndex": "0xe",
          "logIndex": "0x10",
          "removed": false
        }
      ],
      "logsBloom": "0x00000000000000000000000000000000000040000000000000000000000000000000000001000000000000000000004000000000000000000000000000000000000000000000000000000008000000020000000000000000000000000000000000000000004000000000000000000000000000000000000000800010000000000000000000000000000000000000000000000000000000000000000000800000000000001000000000000000000000000000000000000000000000000000000000000002000000000000000000000000000000000000000000000000000000000000000000000000000000000000000000000200000000000000000000000000",
      "type": "0x0",
      "transactionHash": "0x9d29f871348c318ad7e3192b324febc6f2994750efa33ae87a8652f30722f8c3",
      "transactionIndex": "0xe",
      "blockHash": "0xf7746f552d885116e30c24ad60a4c80d58951c37eabda96bf2b04549a904ff70",
      "blockNumber": "0x11a151b",
      "gasUsed": "0xc994",
      "effectiveGasPrice": "0xf4352",
      "from": "0x4d05fce7228f04183a097db7f12a29c902655297",
      "to": "0x4dc34690e9b1fe0bfcdbc05d94683012e744e095",
      "contractAddress": null,
      "l1BaseFeeScalar": "0x44d",
      "l1BlobBaseFee": "0x1",
      "l1BlobBaseFeeScalar": "0xa118b",
      "l1Fee": "0x20165c692",
      "l1GasPrice": "0x123702ec6",
      "l1GasUsed": "0x640"
    },
    {
      "status": "0x1",
      "cumulativeGasUsed": "0x193c61",
      "logs": [
        {
          "address": "0x4dc34690e9b1fe0bfcdbc05d94683012e744e095",
          "topics": [
            "0xddf252ad1be2c89b69c2b068fc378daa952ba7f163c4a11628f55a4df523b3ef",
            "0x0000000000000000000000004d05fce7228f04183a097db7f12a29c902655297",
            "0x00000000000000000000000012fec127100a46e81bd09c1b07cf3d0f0c0de070"
          ],
          "data": "0x00000000000000000000000000000000000000000000000aef17b46c01bc572c",
          "blockHash": "0xf7746f552d885116e30c24ad60a4c80d58951c37eabda96bf2b04549a904ff70",
          "blockNumber": "0x11a151b",
          "transactionHash": "0xba2784a54179528672cd2fb9f0adb66e637848a7d8be7b898b9feaeacf556f00",
          "transactionIndex": "0xf",
          "logIndex": "0x11",
          "removed": false
        }
      ],
      "logsBloom": "0x00000000000000000000000000000000000040000000000000000000000000000000000000000000000000004000000000000000000000000000000000000000000000000000000000000008000000020000000000000000000000000000000000000000004000000000000000000000000000000000000000000010000000400000004000000000000000000000000000000000000000000000000000800000000000001000000000000000000000000000000000000000000000000000000000000002000000000000000000000000000000000000000000000000000000000000000000000000000000000000000000000200000000000000000000000000",
      "type": "0x0",
      "transactionHash": "0xba2784a54179528672cd2fb9f0adb66e637848a7d8be7b898b9feaeacf556f00",
      "transactionIndex": "0xf",
      "blockHash": "0xf7746f552d885116e30c24ad60a4c80d58951c37eabda96bf2b04549a904ff70",
      "blockNumber": "0x11a151b",
      "gasUsed": "0xc9ac",
      "effectiveGasPrice": "0xf4352",
      "from": "0x4d05fce7228f04183a097db7f12a29c902655297",
      "to": "0x4dc34690e9b1fe0bfcdbc05d94683012e744e095",
      "contractAddress": null,
      "l1BaseFeeScalar": "0x44d",
      "l1BlobBaseFee": "0x1",
      "l1BlobBaseFeeScalar": "0xa118b",
      "l1Fee": "0x20165c692",
      "l1GasPrice": "0x123702ec6",
      "l1GasUsed": "0x640"
    },
    {
      "status": "0x1",
      "cumulativeGasUsed": "0x1a060d",
      "logs": [
        {
          "address": "0x4dc34690e9b1fe0bfcdbc05d94683012e744e095",
          "topics": [
            "0xddf252ad1be2c89b69c2b068fc378daa952ba7f163c4a11628f55a4df523b3ef",
            "0x0000000000000000000000004d05fce7228f04183a097db7f12a29c902655297",
            "0x0000000000000000000000002613d469e2de1a4554870d7ad374558ee4eabd41"
          ],
          "data": "0x000000000000000000000000000000000000000000000008bde7c850aa762460",
          "blockHash": "0xf7746f552d885116e30c24ad60a4c80d58951c37eabda96bf2b04549a904ff70",
          "blockNumber": "0x11a151b",
          "transactionHash": "0xe7adb4240cf559ab951601bea0d732288ba4465ae517fb0057ac12e0d7f9f241",
          "transactionIndex": "0x10",
          "logIndex": "0x12",
          "removed": false
        }
      ],
      "logsBloom": "0x00000000000000000000000000000000000040000000000000000000000000000000000000000000000000000000000000000000000000000000000000000000000000000000000000000008000000020000000000000000000000000000000000000000004000100000000080000000000000000000000000000010000000000000000000000000000000000000000000000000010000000000000000800000000000001000000000000000000000000000000000000000000000000000000000000002000000000000000000000000000000000000000000000000000000000000000000000000000000000000000000000200000000000000000000000000",
      "type": "0x0",
      "transactionHash": "0xe7adb4240cf559ab951601bea0d732288ba4465ae517fb0057ac12e0d7f9f241",
      "transactionIndex": "0x10",
      "blockHash": "0xf7746f552d885116e30c24ad60a4c80d58951c37eabda96bf2b04549a904ff70",
      "blockNumber": "0x11a151b",
      "gasUsed": "0xc9ac",
      "effectiveGasPrice": "0xf4352",
      "from": "0x4d05fce7228f04183a097db7f12a29c902655297",
      "to": "0x4dc34690e9b1fe0bfcdbc05d94683012e744e095",
      "contractAddress": null,
      "l1BaseFeeScalar": "0x44d",
      "l1BlobBaseFee": "0x1",
      "l1BlobBaseFeeScalar": "0xa118b",
      "l1Fee": "0x20165c692",
      "l1GasPrice": "0x123702ec6",
      "l1GasUsed": "0x640"
    },
    {
      "status": "0x1",
      "cumulativeGasUsed": "0x1acfb9",
      "logs": [
        {
          "address": "0x4dc34690e9b1fe0bfcdbc05d94683012e744e095",
          "topics": [
            "0xddf252ad1be2c89b69c2b068fc378daa952ba7f163c4a11628f55a4df523b3ef",
            "0x0000000000000000000000004d05fce7228f04183a097db7f12a29c902655297",
            "0x0000000000000000000000001a376cfe2c4d4ba53843a1dc5f9c0758c51c4f37"
          ],
          "data": "0x0000000000000000000000000000000000000000000000110ba85ce74b2a0d6d",
          "blockHash": "0xf7746f552d885116e30c24ad60a4c80d58951c37eabda96bf2b04549a904ff70",
          "blockNumber": "0x11a151b",
          "transactionHash": "0x52539ae2ac1b8da63a87d82158ca2efa4a4b6f18ecee7457ff1ea02d5ed7a4bb",
          "transactionIndex": "0x11",
          "logIndex": "0x13",
          "removed": false
        }
      ],
      "logsBloom": "0x00000000000000000000000000000000000040000000000000000000000000000000000000000000000000000000000000000000000000000000000000000000000000000000000000000008000000020000000000000000000000000000000000000000004000000000000000000000000000000000000000000010000000000000000040000000000000000000000000000000000000000000000080800000000000001000000000000000000000000000000080000000000000000000000000000002000000000000000000000000000000000000000000000000000000000000000000000000000000000000000000000200000000000000000000000000",
      "type": "0x0",
      "transactionHash": "0x52539ae2ac1b8da63a87d82158ca2efa4a4b6f18ecee7457ff1ea02d5ed7a4bb",
      "transactionIndex": "0x11",
      "blockHash": "0xf7746f552d885116e30c24ad60a4c80d58951c37eabda96bf2b04549a904ff70",
      "blockNumber": "0x11a151b",
      "gasUsed": "0xc9ac",
      "effectiveGasPrice": "0xf4352",
      "from": "0x4d05fce7228f04183a097db7f12a29c902655297",
      "to": "0x4dc34690e9b1fe0bfcdbc05d94683012e744e095",
      "contractAddress": null,
      "l1BaseFeeScalar": "0x44d",
      "l1BlobBaseFee": "0x1",
      "l1BlobBaseFeeScalar": "0xa118b",
      "l1Fee": "0x20165c692",
      "l1GasPrice": "0x123702ec6",
      "l1GasUsed": "0x640"
    },
    {
      "status": "0x1",
      "cumulativeGasUsed": "0x1b9965",
      "logs": [
        {
          "address": "0x4dc34690e9b1fe0bfcdbc05d94683012e744e095",
          "topics": [
            "0xddf252ad1be2c89b69c2b068fc378daa952ba7f163c4a11628f55a4df523b3ef",
            "0x0000000000000000000000004d05fce7228f04183a097db7f12a29c902655297",
            "0x000000000000000000000000f86ae957b39b7d99f43e33b363b9c2384a16fab1"
          ],
          "data": "0x000000000000000000000000000000000000000000000013df0dfc8dd6f162b8",
          "blockHash": "0xf7746f552d885116e30c24ad60a4c80d58951c37eabda96bf2b04549a904ff70",
          "blockNumber": "0x11a151b",
          "transactionHash": "0x9f11a4592033a8948e4697e318c9cd8c24b03de604fa3d7bdb9c8a3fc68b9e2e",
          "transactionIndex": "0x12",
          "logIndex": "0x14",
          "removed": false
        }
      ],
      "logsBloom": "0x00000000000000000000000000000000000040002000000000000000000000000000000000000000000000000000000000000000000000000000000000000000000000000000000000000008000000020000000000000000000000800000000000000000014000000000000000000000000000000000000000000010000000000000000000000000000000000000000000000000000000000000000000800000000000001000000000000000000000000000000000000000000000000000000000000002000000000000000000000000000000000000000000000000000000000000000000000000000000000000000000000200000000000000000000000000",
      "type": "0x0",
      "transactionHash": "0x9f11a4592033a8948e4697e318c9cd8c24b03de604fa3d7bdb9c8a3fc68b9e2e",
      "transactionIndex": "0x12",
      "blockHash": "0xf7746f552d885116e30c24ad60a4c80d58951c37eabda96bf2b04549a904ff70",
      "blockNumber": "0x11a151b",
      "gasUsed": "0xc9ac",
      "effectiveGasPrice": "0xf4352",
      "from": "0x4d05fce7228f04183a097db7f12a29c902655297",
      "to": "0x4dc34690e9b1fe0bfcdbc05d94683012e744e095",
      "contractAddress": null,
      "l1BaseFeeScalar": "0x44d",
      "l1BlobBaseFee": "0x1",
      "l1BlobBaseFeeScalar": "0xa118b",
      "l1Fee": "0x20165c692",
      "l1GasPrice": "0x123702ec6",
      "l1GasUsed": "0x640"
    },
    {
      "status": "0x1",
      "cumulativeGasUsed": "0x1c6311",
      "logs": [
        {
          "address": "0x4dc34690e9b1fe0bfcdbc05d94683012e744e095",
          "topics": [
            "0xddf252ad1be2c89b69c2b068fc378daa952ba7f163c4a11628f55a4df523b3ef",
            "0x0000000000000000000000004d05fce7228f04183a097db7f12a29c902655297",
            "0x00000000000000000000000077683a6a830be99dc2456c4f4f274e8e6fee4437"
          ],
          "data": "0x00000000000000000000000000000000000000000000000efb9cabf031cbef8d",
          "blockHash": "0xf7746f552d885116e30c24ad60a4c80d58951c37eabda96bf2b04549a904ff70",
          "blockNumber": "0x11a151b",
          "transactionHash": "0x2a4f6b0daad53722afd9d0f153049a6f6a87c34079b709093105a842b364a1a5",
          "transactionIndex": "0x13",
          "logIndex": "0x15",
          "removed": false
        }
      ],
      "logsBloom": "0x00000000000000000000000000000200000040010000000000000000000000000000000000000000000000000000000000000000000000000000000000000000000000000000000000000008000000020000000000000000000000000000000000000000004000000000000000000000000000000000000000000010000000000000000000000000000000000000000000004000000000000000000000800000000000001000000000000000000000000000000000000000000000000000000000000002000000000000000000000000000000000000000000000000000000000000000000000000000000000000000000000200000000000000000000000000",
      "type": "0x0",
      "transactionHash": "0x2a4f6b0daad53722afd9d0f153049a6f6a87c34079b709093105a842b364a1a5",
      "transactionIndex": "0x13",
      "blockHash": "0xf7746f552d885116e30c24ad60a4c80d58951c37eabda96bf2b04549a904ff70",
      "blockNumber": "0x11a151b",
      "gasUsed": "0xc9ac",
      "effectiveGasPrice": "0xf4352",
      "from": "0x4d05fce7228f04183a097db7f12a29c902655297",
      "to": "0x4dc34690e9b1fe0bfcdbc05d94683012e744e095",
      "contractAddress": null,
      "l1BaseFeeScalar": "0x44d",
      "l1BlobBaseFee": "0x1",
      "l1BlobBaseFeeScalar": "0xa118b",
      "l1Fee": "0x20165c692",
      "l1GasPrice": "0x123702ec6",
      "l1GasUsed": "0x640"
    },
    {
      "status": "0x1",
      "cumulativeGasUsed": "0x1d2cbd",
      "logs": [
        {
          "address": "0x4dc34690e9b1fe0bfcdbc05d94683012e744e095",
          "topics": [
            "0xddf252ad1be2c89b69c2b068fc378daa952ba7f163c4a11628f55a4df523b3ef",
            "0x0000000000000000000000004d05fce7228f04183a097db7f12a29c902655297",
            "0x000000000000000000000000650243a0ec0e89b6cada865db44eabe20c6960c6"
          ],
          "data": "0x000000000000000000000000000000000000000000000015b6b956f69c80f172",
          "blockHash": "0xf7746f552d885116e30c24ad60a4c80d58951c37eabda96bf2b04549a904ff70",
          "blockNumber": "0x11a151b",
          "transactionHash": "0x1ec1a26ad080476c96ce27643b667678a884ffc9ca0dd39a4ff528b6671c9565",
          "transactionIndex": "0x14",
          "logIndex": "0x16",
          "removed": false
        }
      ],
      "logsBloom": "0x00000000000000000000000000000000000040000000000000000000000000000000000000000000000000000000000000000000000000000000000000000000000000000000000000000008000000020000000000000000000000000000000000000000004000000000000000000000000000000000000000000010000000000000000000000000000000000000000000000000000000000000000000800000000000001000000000000000000000000004000000000000000000000000000000000002000800000000000000000000000000000000000000000000000000000000000000000000000000000000000000000200000000000000000000100000",
      "type": "0x0",
      "transactionHash": "0x1ec1a26ad080476c96ce27643b667678a884ffc9ca0dd39a4ff528b6671c9565",
      "transactionIndex": "0x14",
      "blockHash": "0xf7746f552d885116e30c24ad60a4c80d58951c37eabda96bf2b04549a904ff70",
      "blockNumber": "0x11a151b",
      "gasUsed": "0xc9ac",
      "effectiveGasPrice": "0xf4352",
      "from": "0x4d05fce7228f04183a097db7f12a29c902655297",
      "to": "0x4dc34690e9b1fe0bfcdbc05d94683012e744e095",
      "contractAddress": null,
      "l1BaseFeeScalar": "0x44d",
      "l1BlobBaseFee": "0x1",
      "l1BlobBaseFeeScalar": "0xa118b",
      "l1Fee": "0x20165c692",
      "l1GasPrice": "0x123702ec6",
      "l1GasUsed": "0x640"
    },
    {
      "status": "0x1",
      "cumulativeGasUsed": "0xc15fc",
      "logs": [
        {
          "address": "0x4dc34690e9b1fe0bfcdbc05d94683012e744e095",
          "topics": [
            "0xddf252ad1be2c89b69c2b068fc378daa952ba7f163c4a11628f55a4df523b3ef",
            "0x0000000000000000000000004d05fce7228f04183a097db7f12a29c902655297",
            "0x00000000000000000000000041c45ac089a3ef00ca2636809b376f2b7ac01d7b"
          ],
          "data": "0x000000000000000000000000000000000000000000000003e55fb33e98e3fa73",
          "blockHash": "0xc704874c7a98ffc912e589be7ef8fb9892db3a0212ecb5b0390e541228f54e49",
          "blockNumber": "0x11a151c",
          "transactionHash": "0x8444bcf66dd548ed0aba5f2569b9a76a2a692b35bfe0e9fbd6c0e4e341183e25",
          "transactionIndex": "0x6",
          "logIndex": "0xa",
          "removed": false
        }
      ],
      "logsBloom": "0x00000000000000000000000000000000000040000000000000000000000000000000000000000000000000000000000000000000000200000000000000000000000000000000000000000008000000020000000000000000000000000000000000000000004000000000000000000000000000000000000000000010000000000000000000000000000000000000000000000000000000000000000200800000000000001000000000000000000000000000000000000000002000000000000000000002000000000000000000000000000000000000000000000000000000000000000000000000000000000000000000000200000000000000000000000000",
      "type": "0x0",
      "transactionHash": "0x8444bcf66dd548ed0aba5f2569b9a76a2a692b35bfe0e9fbd6c0e4e341183e25",
      "transactionIndex": "0x6",
      "blockHash": "0xc704874c7a98ffc912e589be7ef8fb9892db3a0212ecb5b0390e541228f54e49",
      "blockNumber": "0x11a151c",
      "gasUsed": "0xc9a0",
      "effectiveGasPrice": "0xf4352",
      "from": "0x4d05fce7228f04183a097db7f12a29c902655297",
      "to": "0x4dc34690e9b1fe0bfcdbc05d94683012e744e095",
      "contractAddress": null,
      "l1BaseFeeScalar": "0x44d",
      "l1BlobBaseFee": "0x1",
      "l1BlobBaseFeeScalar": "0xa118b",
      "l1Fee": "0x20165c692",
      "l1GasPrice": "0x123702ec6",
      "l1GasUsed": "0x640"
    },
    {
      "status": "0x1",
      "cumulativeGasUsed": "0xcdfa8",
      "logs": [
        {
          "address": "0x4dc34690e9b1fe0bfcdbc05d94683012e744e095",
          "topics": [
            "0xddf252ad1be2c89b69c2b068fc378daa952ba7f163c4a11628f55a4df523b3ef",
            "0x0000000000000000000000004d05fce7228f04183a097db7f12a29c902655297",
            "0x0000000000000000000000002624984d0c9be87ca47eb432bfaf97c993aa22f4"
          ],
          "data": "0x0000000000000000000000000000000000000000000000175afc9503e9d6b083",
          "blockHash": "0xc704874c7a98ffc912e589be7ef8fb9892db3a0212ecb5b0390e541228f54e49",
          "blockNumber": "0x11a151c",
          "transactionHash": "0xe9725a28c19793a94557e3b9c7b8cb3320ea4a6d37650f63e918499718683480",
          "transactionIndex": "0x7",
          "logIndex": "0xb",
          "removed": false
        }
      ],
      "logsBloom": "0x00000000000000000000000000000000000040000000000000000000000000000000000040000000000000000000000000000000000080000000000000000000000000000000000000000008000000020000000000000000000000000000000000000000004000000000000000000000000000000000000000000010000000000000000000000000000000000000000000000000000000000000000000800000000000009000000000000000000000000000000000000000000000000000000000000002000000000000000000000000000000000000000000000000000000000000000000000000000000000000000000000200000000000000000000000000",
      "type": "0x0",
      "transactionHash": "0xe9725a28c19793a94557e3b9c7b8cb3320ea4a6d37650f63e918499718683480",
      "transactionIndex": "0x7",
      "blockHash": "0xc704874c7a98ffc912e589be7ef8fb9892db3a0212ecb5b0390e541228f54e49",
      "blockNumber": "0x11a151c",
      "gasUsed": "0xc9ac",
      "effectiveGasPrice": "0xf4352",
      "from": "0x4d05fce7228f04183a097db7f12a29c902655297",
      "to": "0x4dc34690e9b1fe0bfcdbc05d94683012e744e095",
      "contractAddress": null,
      "l1BaseFeeScalar": "0x44d",
      "l1BlobBaseFee": "0x1",
      "l1BlobBaseFeeScalar": "0xa118b",
      "l1Fee": "0x20165c692",
      "l1GasPrice": "0x123702ec6",
      "l1GasUsed": "0x640"
    },
    {
      "status": "0x1",
      "cumulativeGasUsed": "0x7ca2c",
      "logs": [
        {
          "address": "0x4dc34690e9b1fe0bfcdbc05d94683012e744e095",
          "topics": [
            "0xddf252ad1be2c89b69c2b068fc378daa952ba7f163c4a11628f55a4df523b3ef",
            "0x0000000000000000000000004d05fce7228f04183a097db7f12a29c902655297",
            "0x0000000000000000000000008dee0e32dbb5d6aef2a0269a60c158a546fcd6db"
          ],
          "data": "0x00000000000000000000000000000000000000000000000012428466cb8a4f29",
          "blockHash": "0x2ee1752b71b19028343c734d0f4afe5c1ab83988b0b2f497c587874fba7b3478",
          "blockNumber": "0x11a151d",
          "transactionHash": "0x77ecad3719e1595168ac7b3f7d86f71436fb1526adb3ac47244a96f912eee980",
          "transactionIndex": "0x5",
          "logIndex": "0x7",
          "removed": false
        }
      ],
      "logsBloom": "0x00000000000000000000000000000000000040000000000000000000000000000000000000000000000000000000000000000000000000000000000000000000000000000000000000000008000004020000000000000000000000000000000000000000004000000000000000000000000000000000000000000010000000000000000000000000000000000000000000000000000000040000000000800000000000001000000000000000000000000000000000000000000000000000000000000002000000000000000000000000000000000000000000000000000000080000000000000000000000000000000000000200000000000000000000000000",
      "type": "0x0",
      "transactionHash": "0x77ecad3719e1595168ac7b3f7d86f71436fb1526adb3ac47244a96f912eee980",
      "transactionIndex": "0x5",
      "blockHash": "0x2ee1752b71b19028343c734d0f4afe5c1ab83988b0b2f497c587874fba7b3478",
      "blockNumber": "0x11a151d",
      "gasUsed": "0xc9a0",
      "effectiveGasPrice": "0xf4352",
      "from": "0x4d05fce7228f04183a097db7f12a29c902655297",
      "to": "0x4dc34690e9b1fe0bfcdbc05d94683012e744e095",
      "contractAddress": null,
      "l1BaseFeeScalar": "0x44d",
      "l1BlobBaseFee": "0x1",
      "l1BlobBaseFeeScalar": "0xa118b",
      "l1Fee": "0x20165c692",
      "l1GasPrice": "0x123702ec6",
      "l1GasUsed": "0x640"
    },
    {
      "status": "0x1",
      "cumulativeGasUsed": "0x893d8",
      "logs": [
        {
          "address": "0x4dc34690e9b1fe0bfcdbc05d94683012e744e095",
          "topics": [
            "0xddf252ad1be2c89b69c2b068fc378daa952ba7f163c4a11628f55a4df523b3ef",
            "0x0000000000000000000000004d05fce7228f04183a097db7f12a29c902655297",
            "0x000000000000000000000000ae4a80dd274cdaa164d3f1b1238ed3053cd9d55f"
          ],
          "data": "0x000000000000000000000000000000000000000000000016d909b02ba1b4cb28",
          "blockHash": "0x2ee1752b71b19028343c734d0f4afe5c1ab83988b0b2f497c587874fba7b3478",
          "blockNumber": "0x11a151d",
          "transactionHash": "0x4f09bbe5f4011ad6b12b5bc6b7393641b94590b36fd479a9ed5bf75dbd03df9a",
          "transactionIndex": "0x6",
          "logIndex": "0x8",
          "removed": false
        }
      ],
      "logsBloom": "0x00000000000000000000000000000000000040000000000000000000000000000000000000000000000000000000000000000000000004000000000000000000000000000000000000000008000000020000000000000000000000000000000000000000004000000000000000000000000000000000000000000010100000000000000000000000000000000000000000000000000000000000000000800000000000001000000000000080000000000000000000000000000000000000000000000002000000000000000000000000000000000000000000000000000000000000000000000000000000000000000000000200000000000000000000000000",
      "type": "0x0",
      "transactionHash": "0x4f09bbe5f4011ad6b12b5bc6b7393641b94590b36fd479a9ed5bf75dbd03df9a",
      "transactionIndex": "0x6",
      "blockHash": "0x2ee1752b71b19028343c734d0f4afe5c1ab83988b0b2f497c587874fba7b3478",
      "blockNumber": "0x11a151d",
      "gasUsed": "0xc9ac",
      "effectiveGasPrice": "0xf4352",
      "from": "0x4d05fce7228f04183a097db7f12a29c902655297",
      "to": "0x4dc34690e9b1fe0bfcdbc05d94683012e744e095",
      "contractAddress": null,
      "l1BaseFeeScalar": "0x44d",
      "l1BlobBaseFee": "0x1",
      "l1BlobBaseFeeScalar": "0xa118b",
      "l1Fee": "0x20165c692",
      "l1GasPrice": "0x123702ec6",
      "l1GasUsed": "0x640"
    },
    {
      "status": "0x1",
      "cumulativeGasUsed": "0x95d84",
      "logs": [
        {
          "address": "0x4dc34690e9b1fe0bfcdbc05d94683012e744e095",
          "topics": [
            "0xddf252ad1be2c89b69c2b068fc378daa952ba7f163c4a11628f55a4df523b3ef",
            "0x0000000000000000000000004d05fce7228f04183a097db7f12a29c902655297",
            "0x000000000000000000000000a671aeaa6f278d7b05c45dae2c86160b9afedfab"
          ],
          "data": "0x000000000000000000000000000000000000000000000009897f4ec3cbfc8694",
          "blockHash": "0x2ee1752b71b19028343c734d0f4afe5c1ab83988b0b2f497c587874fba7b3478",
          "blockNumber": "0x11a151d",
          "transactionHash": "0xc75279073bfee985a29820c0906154ce0f8ee33e349950be1a0f1b56cddd4255",
          "transactionIndex": "0x7",
          "logIndex": "0x9",
          "removed": false
        }
      ],
      "logsBloom": "0x00000000000000000000000000000000000040000000000000000000000000000000000000000000000000000000000000000000000000000000000000000000000000000000000000000008000000020000000400000000000000000000000000000000004000000000000000040000000000000000000000080010000000000000000000000000000000000000000000000000000000000000000000800000000000001000000000000000000000000000000000000000000000000000000000000002000000000000000000000000000000000000000000000000000000000000000000000000000000000000000000000200000000000000000000000000",
      "type": "0x0",
      "transactionHash": "0xc75279073bfee985a29820c0906154ce0f8ee33e349950be1a0f1b56cddd4255",
      "transactionIndex": "0x7",
      "blockHash": "0x2ee1752b71b19028343c734d0f4afe5c1ab83988b0b2f497c587874fba7b3478",
      "blockNumber": "0x11a151d",
      "gasUsed": "0xc9ac",
      "effectiveGasPrice": "0xf4352",
      "from": "0x4d05fce7228f04183a097db7f12a29c902655297",
      "to": "0x4dc34690e9b1fe0bfcdbc05d94683012e744e095",
      "contractAddress": null,
      "l1BaseFeeScalar": "0x44d",
      "l1BlobBaseFee": "0x1",
      "l1BlobBaseFeeScalar": "0xa118b",
      "l1Fee": "0x20165c692",
      "l1GasPrice": "0x123702ec6",
      "l1GasUsed": "0x640"
    },
    {
      "status": "0x1",
      "cumulativeGasUsed": "0xa2730",
      "logs": [
        {
          "address": "0x4dc34690e9b1fe0bfcdbc05d94683012e744e095",
          "topics": [
            "0xddf252ad1be2c89b69c2b068fc378daa952ba7f163c4a11628f55a4df523b3ef",
            "0x0000000000000000000000004d05fce7228f04183a097db7f12a29c902655297",
            "0x000000000000000000000000e455418a4133ba37a57b3b5efe4a3cd159d08fa0"
          ],
          "data": "0x000000000000000000000000000000000000000000000011889e4fa14d8c68bc",
          "blockHash": "0x2ee1752b71b19028343c734d0f4afe5c1ab83988b0b2f497c587874fba7b3478",
          "blockNumber": "0x11a151d",
          "transactionHash": "0x804d661f6132c694d7686fde0f7af7cae1769351ce5e70a7f93b82a07316cea7",
          "transactionIndex": "0x8",
          "logIndex": "0xa",
          "removed": false
        }
      ],
      "logsBloom": "0x00000000000000000000000000000000000040000000000000000000000000000000000000000000000000000000000000000000000000000000000000000002000000000000000000000008000000020000000000000000000000000000000000000000004000000000000000000000000000000000000000000010000000000000000000000000000000000000000000000000000000000000000000800000000000001000000000000000000000000000000000000000000000000000000000000802000000000000000000000000000000000000000000000000000000400000000000000000000000000000000000000200000000000000000000000000",
      "type": "0x0",
      "transactionHash": "0x804d661f6132c694d7686fde0f7af7cae1769351ce5e70a7f93b82a07316cea7",
      "transactionIndex": "0x8",
      "blockHash": "0x2ee1752b71b19028343c734d0f4afe5c1ab83988b0b2f497c587874fba7b3478",
      "blockNumber": "0x11a151d",
      "gasUsed": "0xc9ac",
      "effectiveGasPrice": "0xf4352",
      "from": "0x4d05fce7228f04183a097db7f12a29c902655297",
      "to": "0x4dc34690e9b1fe0bfcdbc05d94683012e744e095",
      "contractAddress": null,
      "l1BaseFeeScalar": "0x44d",
      "l1BlobBaseFee": "0x1",
      "l1BlobBaseFeeScalar": "0xa118b",
      "l1Fee": "0x20165c692",
      "l1GasPrice": "0x123702ec6",
      "l1GasUsed": "0x640"
    },
    {
      "status": "0x1",
      "cumulativeGasUsed": "0x1288ae",
      "logs": [],
      "logsBloom": "0x00000000000000000000000000000000000000000000000000000000000000000000000000000000000000000000000000000000000000000000000000000000000000000000000000000000000000000000000000000000000000000000000000000000000000000000000000000000000000000000000000000000000000000000000000000000000000000000000000000000000000000000000000000000000000000000000000000000000000000000000000000000000000000000000000000000000000000000000000000000000000000000000000000000000000000000000000000000000000000000000000000000000000000000000000000000",
      "type": "0x0",
      "transactionHash": "0xc548d74e25b130fbc481dd0662c8b93c48ccface2eff7f6c729601764167e960",
      "transactionIndex": "0x9",
      "blockHash": "0x2ee1752b71b19028343c734d0f4afe5c1ab83988b0b2f497c587874fba7b3478",
      "blockNumber": "0x11a151d",
      "gasUsed": "0x8617e",
      "effectiveGasPrice": "0xf4352",
      "from": "0x4d05fce7228f04183a097db7f12a29c902655297",
      "to": null,
      "contractAddress": "0xa0d2123c8d12add7c29c132f2c93060f2efd2699",
      "l1BaseFeeScalar": "0x44d",
      "l1BlobBaseFee": "0x1",
      "l1BlobBaseFeeScalar": "0xa118b",
      "l1Fee": "0x1c407251a2",
      "l1GasPrice": "0x123702ec6",
      "l1GasUsed": "0x580b"
    },
    {
      "status": "0x1",
      "cumulativeGasUsed": "0x1c7acc",
      "logs": [
        {
          "address": "0xdf099971129c6788ab10199df9fe9b53469dd51c",
          "topics": [
            "0xddf252ad1be2c89b69c2b068fc378daa952ba7f163c4a11628f55a4df523b3ef",
            "0x0000000000000000000000000000000000000000000000000000000000000000",
            "0x0000000000000000000000004d05fce7228f04183a097db7f12a29c902655297"
          ],
          "data": "0x00000000000000000000000000000000000000000000d3c21bcecceda1000000",
          "blockHash": "0x2ee1752b71b19028343c734d0f4afe5c1ab83988b0b2f497c587874fba7b3478",
          "blockNumber": "0x11a151d",
          "transactionHash": "0x63b269d0d285993c6f8f0c411173a25d0ba9a7826b604d444c9d5b2ef2cb1cbf",
          "transactionIndex": "0xa",
          "logIndex": "0xb",
          "removed": false
        }
      ],
      "logsBloom": "0x000000000000000000000000000000000000400000000000000000000000000000000000000000000000000000000000000000000000000000000008000000000000000000000000000000080000000000000000000000000000000000000000000000000a4000000000000000000800000000000000000000000010000000000000000000000000000000000000800000000000000000000000000000800000000000000000000000000000000000000000000000000000000000000000000000000002000000000000000000000000000000000000000000000000000020000000000000000000000000000000000000000000000000000000000000000000",
      "type": "0x0",
      "transactionHash": "0x63b269d0d285993c6f8f0c411173a25d0ba9a7826b604d444c9d5b2ef2cb1cbf",
      "transactionIndex": "0xa",
      "blockHash": "0x2ee1752b71b19028343c734d0f4afe5c1ab83988b0b2f497c587874fba7b3478",
      "blockNumber": "0x11a151d",
      "gasUsed": "0x9f21e",
      "effectiveGasPrice": "0xf4352",
      "from": "0x4d05fce7228f04183a097db7f12a29c902655297",
      "to": null,
      "contractAddress": "0xdf099971129c6788ab10199df9fe9b53469dd51c",
      "l1BaseFeeScalar": "0x44d",
      "l1BlobBaseFee": "0x1",
      "l1BlobBaseFeeScalar": "0xa118b",
      "l1Fee": "0x29812846e4",
      "l1GasPrice": "0x123702ec6",
      "l1GasUsed": "0x8159"
    }
  ],
  "libraries": [],
  "pending": [],
  "returns": {},
  "timestamp": 1732741403,
  "chain": 84532,
  "commit": "548aada"
}